:020000040800F2
:10000000D81400207D7B0008F33A0008F53A000878
:10001000F73A0008F93A0008FB3A0008000000002F
:10002000000000000000000000000000FD3A000891
:10003000FF3A000800000000013B0008033B0008F5
:10004000D57B0008D97B0008DD7B0008193B000840
:10005000E57B0008E97B0008D73C0008F93C000874
:100060001B3D00083D3D00085F3D0008017C000885
:10007000057C0008097C00080D7C0008117C000844
:10008000157C0008197C00081D7C0008217C0008F4
:100090001F3F0008297C00082D7C0008813D0008D6
:1000A000357C0008693B00083D7C0008417C000865
:1000B0009B3B0008CD3B0008FF3B0008517C00083B
:1000C000557C0008597C00085D7C0008617C0008B4
:1000D000657C0008AB3C0008C13C0008717C00084E
:1000E000373E0008797C00087D7C0008817C000890
:1000F000857C0008897C00088D7C0008917C0008C4
:10010000957C0008997C00082D3C0008A17C000823
:10011000A57C0008A97C0008573C0008813C000829
:10012000B57C0008B97C0008BD7C0008C17C0008D3
:1001300080B5DFF8140C0088401CDFF80C1C088028
:10014000DFF8080C0068401CDFF8001C0860DFF8CE
:10015000F80B0088B0F5AF6F07D10020DFF8F01B77
:1001600008700020DFF8EC1B0870DFF8DC0B00885B
:10017000DFF8E41B0988884208D1DFF8B00D006879
:10018000002803D0DFF8A40D0068804701BD80B5CA
:10019000DFF8B40B4088401CDFF8AC1B4880DFF868
:1001A000BC0B0068401CDFF8B41B0860DFF8980B3C
:1001B0004088B0F5AF6F07D10020DFF8941B0870BE
:1001C0000020DFF8901B0870DFF87C0B4088DFF818
:1001D000901B0988884208D1DFF8B00D006800281C
:1001E00003D0DFF8A80D0068804701BD10B50024DA
:1001F000DFF8700BC08AB0F57A7F01DD012000E0E6
:10020000002054EAC014DFF85C0B008AB0F5967F3A
:1002100001DD012000E0002054EA0014DFF8440B67
:10022000408AB0F5967F01DD012000E0002054EA0D
:100230004014DFF8300B808AB0F57A7F01DD0120B1
:1002400000E0002054EA8014022001F009FF152884
:100250000ADBDFF8080B0068DFF84C1C0968401A5D
:10026000042801D2012000E0002054EA800401208B
:1002700001F0F6FE15280ADBDFF8E00A0068DFF877
:10028000101D0968401A042801D2012000E0002056
:1002900054EAC004DFF8B40A0068DFF80C1C0860F8
:1002A000DFF8B80A0068DFF8E81C08602000C0B278
:1002B00010BD80B50020DFF81C1C0988491CDFF840
:1002C000142C1180DFF80C1C0988022291FBF2F338
:1002D00003FB1213002B00F0F280DFF8F80B00880C
:1002E000192190FBF1F201FB120000282AD1FFF73F
:1002F0007DFFDFF83C1C0870DFF8380C0078DFF871
:10030000301C0978084217D00020DFF8881C0870DC
:100310000020DFF8801C48700420DFF8781C88700B
:100320000020DFF8701C88600120DFF8681CC870AE
:10033000DFF8600C02F068FEDFF8F40B0078DFF8FD
:10034000F41B087000200AE0DFF8181AC0B231F878
:100350001010DFF8442CC0B222F81010401CC0B2BC
:100360000828F1DB8021DFF8340C89B2016101211A
:10037000DFF82C0C89B201614FF48051DFF8240CB6
:1003800002F0EAFEDFF8201C0880DFF8200C00787D
:10039000002804D0DFF8140C007804287AD1DFF8A4
:1003A000100C0078DFF80C1C0978884272D1DFF855
:1003B000080C007800286DD1DFF8000C00780028C8
:1003C00068D1DFF8E40B0088DFF8F41B0988401AD5
:1003D00002F00CFF02280CDBDFF86C098088401C5F
:1003E000DFF864198880DFF8C00B0088DFF8D01BC5
:1003F0000880DFF8D00B0088401CDFF8C81B08809D
:10040000DFF8C00B00884C284CDB0020DFF8B41B61
:100410000880DFF834098188DFF8AC0B02F0EAFECF
:10042000DFF824098088DFF8A41B8988401ADFF8E8
:10043000481D8880DFF8400D8088401F92281ED319
:10044000DFF8340D8188DFF8880B02F0D3FE00203E
:10045000DFF8401B08700220DFF8381B48700420CA
:10046000DFF8301B88700020DFF8281B886002202E
:10047000DFF8201BC870DFF81C0B02F0C5FD002060
:10048000DFF8C4188880DFF8C0088088DFF83C1BDC
:10049000888007E00020DFF8B01888800020DFF8AF
:1004A000241B0880DFF8A0080088DFF8201B0880E4
:1004B000DFF894084088DFF8141B488068E3DFF811
:1004C000140B0088DFF8D01A0988DFF89828128802
:1004D000891A88420DDADFF8000B0078032808DA61
:1004E000DFF8980C006850F00100DFF8901C0860FD
:1004F00007E0DFF8880C006840084000DFF87C1C4B
:100500000860DFF8940A0089DFF858180989401A52
:10051000DFF8C01A0989884208DADFF8600C006841
:1005200050F00200DFF8541C086007E0DFF84C0CC4
:10053000006830F00200DFF8441C0860DFF8580A59
:10054000B0F90400DFF81C18B1F90410401ADFF804
:10055000301C0880DFF87C0A8088DFF8241CB1F9A1
:100560000010884208DADFF8140C006850F004002C
:10057000DFF8081C086007E0DFF8000C006830F0C6
:100580000400DFF8F81B0860DFF82C0A0078002868
:1005900040F0C580DFF8240A0078002840F0BF80D2
:1005A000DFF8080A007803286BD1DFF8D80B007851
:1005B000022866D1DFF8D00BB0F90000DFF8C01BCD
:1005C000B1F90010401A32280CDB0620DFF8E019E0
:1005D00008700920DFF8DC1908700020DFF8AC1B78
:1005E00008809CE0DFF8A00BB0F90000DFF8901B5A
:1005F000B1F90010401A10F1310F0CDA0920DFF8C0
:10060000B01908700620DFF8AC1908700020DFF878
:100610007C1B088083E0DFF8640B007840070CD572
:100620000920DFF88C1908700920DFF88819087094
:100630000020DFF8581B088071E00320DFF87019F4
:1006400008700920DFF86C190870DFF8400B00888B
:10065000411CDFF8382B118080B2B0F5967F5EDD4B
:100660000C20DFF84C1908700C20DFF848190870CE
:100670000020DFF8381908700020DFF8101B088010
:100680004DE0DFF828090078022848D1DFF8F40AA5
:100690000078042843D1DFF8F80A0088411CDFF80D
:1006A000F02A1180DFF8EC1A098880B2884236D32C
:1006B000DFF8FC0800780C2812DA0020DFF8D01AE6
:1006C0000880DFF8D00A00883730DFF8C81A0880C1
:1006D000DFF8DC080078401CDFF8D41808701EE052
:1006E000DFF8B00A00883738DFF8A81A0880002041
:1006F000DFF8A01808700120DFF89818487004206F
:10070000DFF8901888700020DFF8881888600020D3
:10071000DFF88018C870DFF87C0802F075FCDFF89D
:10072000600A0088DFF8601A08800821DFF8700886
:1007300002F012FD002808D1DFF8400A006850F0EE
:100740001000DFF8381A086007E0DFF8300A0068A8
:1007500030F01000DFF8241A08600421DFF84008A8
:1007600002F0FAFC002808D1DFF8100A006850F007
:100770000800DFF8081A086007E0DFF8000A0068E0
:1007800030F00800DFF8F4190860DFF84808408806
:10079000DFF804184988DFF8CC255288891A884286
:1007A0000DDADFF834080078032808DADFF8CC091E
:1007B000006850F48070DFF8C419086007E0DFF8C3
:1007C000BC09006830F48070DFF8B0190860DFF809
:1007D000C8074089DFF88C154989401ADFF8F417FB
:1007E0004989884208DADFF89409006850F40070FB
:1007F000DFF88819086007E0DFF88009006830F446
:100800000070DFF878190860DFF88C07B0F906008F
:10081000DFF85015B1F90610401ADFF8101B0880F8
:10082000DFF8B007C088DFF8041BB1F90010884278
:1008300008DADFF84809006850F48060DFF83C19F6
:10084000086007E0DFF83409006830F48060DFF802
:100850002C190860DFF860070078002840F0C58098
:10086000DFF858070078002840F0BF80DFF83C0729
:10087000007803286BD1DFF80C090078032866D1D3
:10088000DFF8B00BB0F90000DFF8A01AB1F90010E2
:10089000401A32280CDB0920DFF8141708700620F4
:1008A000DFF8101708700020DFF8E01808809CE0DF
:1008B000DFF8800BB0F90000DFF8701AB1F9001012
:1008C000401A10F1310F0CDA0620DFF8E416087038
:1008D0000920DFF8E01608700020DFF8B018088063
:1008E00083E0DFF89808006840050CD50920DFF8A0
:1008F000C01608700920DFF8BC1608700020DFF869
:100900008C18088071E00920DFF8A4160870032015
:10091000DFF8A0160870DFF874080088411CDFF8C3
:100920006C28118080B2B0F5967F5EDD0C20DFF878
:10093000801608700C20DFF87C1608700020DFF8A5
:100940006C1608700020DFF8441808804DE0DFF8CE
:100950005C060078022848D1DFF8280800780528CE
:1009600043D1DFF82C080088411EDFF824281180CD
:10097000DFF82018098880B2814236D3DFF83406C8
:100980000078002812D00020DFF804180880DFF873
:10099000040800883738DFF8FC170880DFF81406F1
:1009A0000078401EDFF80C1608701EE0DFF8E40740
:1009B00000883730DFF8DC1708800020DFF8D41516
:1009C00008700120DFF8CC1548700420DFF8C4154A
:1009D00088700020DFF8BC1588600020DFF8B415AF
:1009E000C870DFF8B00502F00FFBDFF8400900889F
:1009F000DFF8401A08804FF48071DFF8A00502F09C
:100A0000ABFB002808D1DFF87407006850F4805071
:100A1000DFF86817086007E0DFF86007006830F467
:100A20008050DFF8581708604FF40071DFF86C054C
:100A300002F092FB002808D1DFF84007006850F46C
:100A40000060DFF83817086007E0DFF8300700685B
:100A500030F40060DFF8241708608021DFF83C05DF
:100A600089B241610121DFF8380589B24161DFF8BF
:100A700048050078002847D1DFF8400500780028B5
:100A800042D1DFF8F806006841F61B3108423BD03E
:100A9000DFF818050078032804D0DFF81005007887
:100AA000022810D1DFF804050078032804D0DFF80D
:100AB000FC040078022827D1DFF8C006006841F660
:100AC0001A21084220D00020DFF8C8140870012045
:100AD000DFF8C01448700420DFF8B81488700020D4
:100AE000DFF8B01488600020DFF8A814C870DFF8C1
:100AF000A40402F089FA002806D1DFF8BC040078CB
:100B0000401CDFF8B41408708F480088DFF8BC146C
:100B10000988401ADFF8601608808B484088DFF8A3
:100B2000AC144988401ADFF850164880DFF84806B0
:100B30000088DFF87C140978401A012803DB0220C2
:100B400001F09EFA0BE0DFF868040078DFF8281661
:100B50000988401A012802DB022001F0A4FADFF81C
:100B600018064088DFF84C140978401A012803DB86
:100B7000012001F085FA0BE0DFF838040078DFF897
:100B8000F8154988401A012802DB012001F08BFA90
:100B900001BD00B585B00121502002F0D6FB8020B8
:100BA000ADF8000010208DF8030003208DF802003E
:100BB00000A9DFF8E80302F06BFA0120ADF80000AD
:100BC00000A9DFF8DC0302F063FA8021DFF8CC0330
:100BD00089B241610121DFF8C80389B241611C205B
:100BE0008DF8040002208DF8050001208DF8060024
:100BF00001208DF8070001A802F037FC0121012037
:100C000002F0B3FB5FF0804002F07CFCC720ADF83F
:100C10000C0041F61F40ADF808000020ADF80E00B2
:100C20000020ADF80A0002A95FF0804002F059FDF3
:100C300001215FF0804002F0FEFE012201215FF001
:100C4000804002F0DBFE05B000BD80B50020A14968
:100C5000088000215FF080408184C046002201218D
:100C60005FF0804002F0CAFEC8215FF080408185BD
:100C7000C04601215FF0804002F0DDFE012201212B
:100C80005FF0804002F0BAFEDFF8B81D2A2002F0C3
:100C900013FF01215FF0804002F091FE01BD80B59D
:100CA00000215FF080408184C04600215FF08040D9
:100CB00002F085FE8021B94889B241610121B8481E
:100CC00089B2416101BD00B583B000201E49088092
:100CD00000201D4948800020944908600020AB494D
:100CE00008604FF6FF701C4908804FF6FF701C49E2
:100CF00008804FF48140009000208DF804001020FF
:100D00008DF8050001208DF8060000A803F02EF9EB
:100D100007BD00B583B000200B49088000200A49B8
:100D200048804FF48140009000208DF8040010208E
:100D30008DF8050000208DF8060000A803F016F9D4
:100D4000009803F069F907BD60040020140000203A
:100D5000C3040020C4040020260000201800002046
:100D6000280000208C03002000B583B001216520FD
:100D700002F0EBFA04208DF803004FF48050ADF838
:100D8000000000A9874802F083F98020ADF8000038
:100D900000A9834802F07CF94FF48040ADF80000D0
:100DA00000A9DFF8240B02F073F90721042002F0F8
:100DB000F2F90E21032002F0EEF917208DF804005D
:100DC00001208DF8050001208DF8060001208DF826
:100DD000070001A802F049FB28208DF8040001A8B3
:100DE00002F043FBDFF8E41A232002F065FEDFF88F
:100DF000E01A3A2002F060FE0121602002F0A5FA1C
:100E00004FF40040ADF8000004208DF803000320EB
:100E10008DF8020000A9DFF8B00A02F039F94FF4AA
:100E20008070ADF8000000A95D4802F031F90121A1
:100E3000402002F08AFA4FF40070ADF80000042060
:100E40008DF8030003208DF8020000A9544802F039
:100E50001FF90121502002F078FA0820ADF80000B7
:100E600004208DF8030003208DF8020000A94C48EF
:100E700002F00EF90420ADF8000000A9484802F085
:100E800007F94FF48070ADF8000000A9434802F064
:100E9000FFF84FF40070ADF8000000A93F4802F0E1
:100EA000F7F8FFF776FE07BD8404002000201F49F5
:100EB000086041480078401E3F4908707047002094
:100EC00032490860DFF8780C0078401EDFF8701CAB
:100ED00008707047B204002080B5002013490860F4
:100EE0000021022001F0A2F833480078401E324968
:100EF000087032480078002817D12F480078002861
:100F000013D100F0B5FA00202249087000202149D1
:100F1000487004201F49887000201E498860032003
:100F20001C49C8701B4802F06FF801BD8C040020FA
:100F3000CB040020CA04002080B5002013490860BB
:100F40000021012001F072F81C480078401E1B4966
:100F500008701A480078002817D117480078002830
:100F600013D100F085FA00200A49087000200949D1
:100F700048700420074988700020064988600320D3
:100F80000449C870034802F03FF801BD90040020F6
:100F9000880400202C040020EC03002000100140F5
:100FA0000018014000080140B4040020CD040020D6
:100FB0002D0000202E000020C8040020C9040020BD
:100FC000B6040020B8040020A47B000868040020B8
:100FD000107A00084C7B0008CE04002010B50024D5
:100FE000DFF8600B0078DFF8581B0978401A04001E
:100FF0000120DFF8F41CE4B2182202FB0411C872CD
:10100000DFF8E40CE4B2182101FB0400807ADFF879
:10101000D81CE4B2182202FB0411C97A884278D1A4
:10102000DFF8C40CE4B2182101FB04004069002879
:1010300016D0DFF8B40CE4B2182101FB04004069BB
:101040008047002807D0DFF8F80A0078401EDFF854
:10105000F01A08700BE00020DFF8EC1A488089E0F5
:10106000DFF8DC0A0078401EDFF8D41A0870DFF8D9
:10107000D40A0078DFF8C81A0978441A0020DFF88B
:10108000C81A4880DFF8600CE4B2182101FB0400A4
:10109000C06800280DD0DFF8500CE4B2182101FB25
:1010A0000400DFF8441CE4B2182202FB0411C968F2
:1010B0008847012001F034F8DFF82C1CE4B2182234
:1010C00002FB04114978C0B281420DD000210120F9
:1010D00000F0ACFFDFF8100CE4B2182101FB0400B3
:1010E0004178012000F0F9FFDFF8FC0BE4B2182191
:1010F00001FB04000089DFF8C01A0880DFF8400A0D
:10110000007802280DDBDFF8B40ADFF85414086019
:101110001BE0DFF8A40A00881030DFF89C1A088072
:1011200028E0DFF8C40BE4B2182101FB0400407989
:10113000002805D0DFF8880ADFF82414086004E0EE
:10114000DFF8800ADFF818140860DFF89C0BE4B2BF
:10115000182101FB04004079DFF86C1A0870DFF8F1
:10116000880BE4B2182101FB0400C17889B2012088
:1011700000F05CFF10BD000070040020940400200B
:10118000AC040020C6040020A8040020B004002005
:10119000A60400202A00002010B50024DFF8A409CE
:1011A0000078DFF8281A0978401A04000120DFF8D7
:1011B000381BE4B2182202FB04118872DFF8280BF6
:1011C000E4B2182101FB0400807ADFF81C1BE4B2B2
:1011D000182202FB0411C97A884277D1DFF8080B84
:1011E000E4B2182101FB04004069002816D0DFF8A2
:1011F000F80AE4B2182101FB040040698047002886
:1012000007D0DFF8C8090078401EDFF8C019087061
:101210000BE00020DFF83019088086E0DFF8AC0929
:101220000078401EDFF8A4190870DFF8180900786C
:10123000DFF898190978441A0020DFF80C190880A3
:10124000DFF8A40AE4B2182101FB0400C0680028FA
:101250000DD0DFF8940AE4B2182101FB0400DFF896
:10126000881AE4B2182202FB0411C96888470220D8
:1012700000F056FFDFF8701AE4B2182202FB0411E6
:101280000978C0B281420DD00021022000F0CEFECC
:10129000DFF8540AE4B2182101FB040001780220AF
:1012A00000F01BFFDFF8400AE4B2182101FB040044
:1012B000C088DFF8A41A0880DFF810090078022837
:1012C0000CDBDFF8980AA749086019E0DFF8880A04
:1012D00000881030DFF8801A088026E0DFF8080A5E
:1012E000E4B2182101FB04000079002804D0DFF8E3
:1012F000700A9C49086003E0DFF8680A99490860B1
:10130000DFF8E409E4B2182101FB04000079DFF8FA
:10131000581A0870DFF8D009E4B2182101FB040064
:10132000817889B2022000F081FE10BDAE04002059
:1013300080B5DFF810080078DFF890180870DFF843
:1013400004080078DFF8F8170870FFF7A8FC0220FF
:1013500000F0E6FEDFF8C81B0978C0B2814208D170
:10136000012000F0DDFEDFF8B81B4978C0B28142F1
:1013700013D00021022000F059FE0021012000F0CE
:1013800055FEDFF89C0B0178022000F0A6FEDFF886
:10139000900B4178012000F0A0FE0020DFF8A81794
:1013A00008800020DFF8A0174880DFF8740BC088A1
:1013B000DFF8A4190880DFF8680B0089DFF8F81758
:1013C0000880DFF808080078022804DBDFF88C09C1
:1013D0006449086003E0DFF8880962490860DFF8C3
:1013E00060070078022804DBDFF8D0075C4908605A
:1013F00003E0DFF8CC075A490860DFF8240B0079D6
:10140000DFF864190870DFF8180B4079DFF8B817B7
:101410000870DFF80C0BC17889B2012000F006FEDD
:10142000DFF8FC0A817889B2022000F0FFFDFFF7A7
:101430000CFC01BDAA04002080B50521042002F0A7
:10144000FBFDFFF740FC0020DFF8F81608700020D5
:10145000DFF8781708700020DFF8E4160870002025
:10146000DFF8841908700020DFF8B81A087001BD91
:1014700080B5FFF74EFCFFF712FC0021022000F0C0
:10148000D5FD0021012000F0D1FD0020DFF8B416C9
:1014900008700020DFF8341708700020DFF8A0166D
:1014A00008700020DFF8401908700020DFF8741A77
:1014B00008700521022002F0BFFD01BDDFF8680AB7
:1014C000006840F20441084040F20441884201D0E3
:1014D000012000E00020C0B27047DFF84C1A096814
:1014E00040F20442114217D0DFF83C1A097849074C
:1014F00009D400210170012141705FF0FF30DFF855
:10150000E81808701DE001210170002141700120E0
:10151000DFF8D418087014E0DFF8CC1891F9001047
:1015200000290ED0DFF8C01891F90010012904DB62
:10153000012101700021417003E0002101700121AF
:1015400041707047DFF8E009006840F2033108425B
:1015500001D1012000E00020C0B27047000000006F
:10156000900400208C040020F8B50500DFF87847CF
:10157000B420AF26B421AF270022DFF8B4391A70A7
:10158000DFF8A429126840F60B331A4200F0878076
:10159000DFF8A0291278032A04D0DFF898291278FE
:1015A000022A10D1DFF88C291278032A04D0DFF840
:1015B00084291278022A25D1DFF86C29126840F6B6
:1015C0000A231A421ED000222270002262701E22BC
:1015D000A2701E22E270E080218109202071092082
:1015E00060710020A0720020E0720020E060DFF84F
:1015F00048096061DFF838090078401CDFF83019CD
:1016000008701834DFF82C090078032832D0DFF88E
:101610002C090078142807DADFF820090078801CEC
:10162000DFF8181908703AE00320DFF8081908708D
:101630000A20DFF8F0180870DFF8EC08007810F0E6
:101640001B0F08D00220DFF8E4180870DFF8F0085C
:1016500001F0D0FD23E0DFF8D008006810F4D85F77
:101660001DD00320DFF8C4180870DFF8D80801F097
:10167000C1FD14E0DFF8AC080078002808D1002094
:10168000DFF8B0180870DFF8C00801F0B3FD06E01D
:10169000DFF890080078401EDFF888180870DFF83F
:1016A00094080078032823D1DFF87C08006841F211
:1016B0001001084209D0DFF874080078022802D12E
:1016C0007826052701E005267827DFF860080078EE
:1016D000022804D1012020700020607003E0002067
:1016E0002070012060700020E0600020606175E0E3
:1016F000DFF84008007802281BD14FF42F764FF412
:101700002F77DFF828080078042804D10020207003
:101710000120607008E0DFF814080078052803D184
:1017200001202070002060700020E06000206061D7
:1017300054E0DFF8F407006841F21001084206D0D7
:101740003C263C270020E0600020606105E0DFF8D7
:10175000FC07E060DFF8F8076061DFF8CC0700788D
:1017600010F01B0F09D0DFF8C007006810F4D85F35
:1017700003D04FF4AF764FF4AF77DFF8AC070078C3
:1017800010F01B0F0ED00120207000206070DFF8D9
:10179000580690F90000002820D10120DFF84816F3
:1017A00008701BE0DFF884070078012807D10320C8
:1017B000DFF878170870DFF89C0701F01BFD0020A8
:1017C000207001206070DFF8200690F900000028EA
:1017D00004D15FF0FF30DFF8101608700A20A07007
:1017E0000A20E070E68027810920207109206071BD
:1017F0000020A0720020E072DFF834070078401C5F
:10180000DFF82C1708701834012020700120607058
:101810001E20A0701E20E0700120E08002202081A8
:10182000DFF810070078032804D10920207109206F
:10183000607136E0DFF8FC060078022823D1DFF87B
:10184000EC06007804280CD10520DFF8E0160870BB
:10185000DFF8740300782071DFF80C050078607100
:101860001FE0DFF8C806007805281AD10420DFF849
:10187000BC160870DFF8500300782071DFF8E80428
:10188000007860710DE0EDB2002D01D0002000E085
:101890000C202071EDB2002D01D0002000E00C20C2
:1018A00060710020A0720020E0720020E060002043
:1018B0006061DFF87C060078401CDFF87416087061
:1018C0001834FFF735FDF1BD001401403101000867
:1018D0008F01000880B5FFF71CFAFFF7E0F900213F
:1018E000022000F0A3FB0021012000F09FFBFFF786
:1018F000ACF9FFF7E8F90020DFF8EC1308700020DE
:10190000DFF8E41348701E20DFF8DC1388701E2017
:10191000DFF8D413C8704FF4B470DFF8CC13C8806C
:101920004FF4B470DFF8C01308810C20DFF8B8134F
:1019300008710C20DFF8B01348710020DFF8A813FD
:1019400088720020DFF8A013C8720020DFF8981317
:10195000C8600020DFF8901348610020DFF888138A
:1019600008760120DFF8801348760A20DFF8781324
:1019700088760A20DFF87013C8764FF4AF70DFF86E
:101980006813C8834FF4AF70DFF85C1308840C2031
:10199000DFF8541308770C20DFF84C134877002049
:1019A000DFF8441381F822000020DFF83C1381F8AF
:1019B0002300DFF89805DFF830134862DFF8900560
:1019C000DFF82413C8620120DFF81C1381F830000F
:1019D0000120DFF8141381F831001E20DFF808130E
:1019E00081F832001E20DFF8001381F83300012057
:1019F000DFF8F412C8860220DFF8EC1208870C200A
:101A0000DFF8E41281F834000C20DFF8DC1281F8F2
:101A100035000020DFF8D01281F83A000020DFF80E
:101A2000C81281F83B000020DFF8BC12C863002018
:101A3000DFF8B41248640320DFF8F4140870FFF7ED
:101A400077FC01BDB302000810B5C0B2002803D076
:101A50000123A54C237002E00023A34C2370C0B2E5
:101A6000002803D00020A04B587002E001209E4BBC
:101A700058701E209C4B98701E209B4BD870C9B28A
:101A80009948C180C9B2984801810C2096490871D3
:101A90000C20954948710020934988720020924992
:101AA000C87200209049C86000208F494861012019
:101AB0008D49087601208C4948761E208A4988760F
:101AC0001E208949C87601208749C883022086499B
:101AD0000884D2B2002A03D000208349087702E0AC
:101AE0000C2081490877D2B2002A03D000207E4919
:101AF000487702E00C207C49487700207A4981F839
:101B000022000020784981F82300002076494862AD
:101B100000207549C8620220DFF814140870FFF72E
:101B200007FC10BD294A1278002A03D1044A127812
:101B3000002A00D003E08C4A1070234801707047DF
:101B4000C9040020C70400206004002080B50220E2
:101B5000DFF8041408700420DFF8D8130870FFF7CA
:101B60006BFC01206049087001205F4948701E200D
:101B70005D4988701E205C49C87001205A49C880A0
:101B80000220594908810C20574908710C205649F8
:101B9000487100205449887200205349C8720020BF
:101BA0005149C8600020504948610120DFF8801386
:101BB0000870FFF7BDFB01BD28000020DD0F000805
:101BC000BF0E0008390F00082E000020C8040020B6
:101BD00080B50220DFF8801308700520DFF8541369
:101BE0000870FFF729FC00203F49087000203E499B
:101BF00048701E203C4988701E203B49C8704FF435
:101C0000B4703949C8804FF4B470374908810C204A
:101C1000354908710C2034494871002032498872D6
:101C200000203149C87200202F49C86000202E4989
:101C3000486101202C49087600202B4948760A206B
:101C4000294988760A202849C8764FF42F702649FA
:101C5000C8834FF42F70244908840C202249087748
:101C60000C202149487700201F4981F822000020DC
:101C70001D4981F8230000201B49486200201A49B1
:101C8000C8620120184981F830000120164981F806
:101C900031001E20144981F832001E20124981F8BB
:101CA000330001201049C88602200F490887002010
:101CB0000D4981F8340000200B4981F835000020DF
:101CC000094981F83A000020074981F83B000020CB
:101CD0000549C863002004494864032094490870FA
:101CE000FFF726FB01BD00004403002080B5022061
:101CF0009949087000208F49087000F02AFBFFF70F
:101D00009BFB0120864908700120854948701E20F0
:101D1000834988701E208249C87001208049C8808C
:101D200002207F4908810C207D4908710C207C49E4
:101D3000487100207A49887200207949C8720020D1
:101D40007749C860002076494861012078490870C9
:101D5000FFF7EEFA01BD00002600002099110008EF
:101D6000AD0E0008D90E00082D00002080B502201D
:101D70007949087002206F49087000F0EAFA0420DF
:101D80006A4908700020754908801E20744908803F
:101D9000FFF752FB0120624908700120604948703A
:101DA0001E205F4988701E205D49C87001205C4973
:101DB000C88002205A4908810020594908710C2026
:101DC0005749487100205649887200205449C8720A
:101DD00000205349C86000205149486101205449FE
:101DE0000870FFF7A5FA01BDC304002010B5040078
:101DF00002205949087001204E49087000F0A9FAE4
:101E0000FFF71AFBE4B2002C05D0022C23D012D32A
:101E1000032C32D040E001204149087001204049A4
:101E2000487001203E49C88002203D4908810120B8
:101E30003F49087030E000203949087001203849D6
:101E400048703C203649C8803C2035490881022032
:101E50003749087020E000203149087001203049DE
:101E600048704FF42F702E49C8804FF42F702C49C2
:101E7000088102202E4908700EE0012028490870D0
:101E80000020274948703C202549C8803C2024492F
:101E900008810220264908701E20214988701E20D2
:101EA0001F49C8700C201E4908710C201C4948713C
:101EB00000201B49887200201949C8720020184967
:101EC000C860002016494861154800781449087612
:101ED00013484078124948761E20114988761E2002
:101EE0000F49C87601200E49C88302200C49088496
:101EF00000200B490877002009494877002008494D
:101F000081F822000020064981F8230000200449BE
:101F1000486200200249C862FFF70AFA10BD0000BB
:101F200044030020C504002094040020C6040020BF
:101F3000C7040020CD040020BD140008C404002004
:101F4000C87A0008DC7A00082C7B0008DB14000843
:101F5000451500083C7B0008CC040020A6040020A6
:101F60002A00002038B5002400250121602001F05E
:101F7000ECF94FF48060ADF8000010208DF80300FC
:101F800003208DF8020000A96D4801F081F80122BC
:101F90004FF480616A4801F0F5F80020040000E089
:101FA000641CE4B2062C3FD26648E4B20C2101FB6B
:101FB0000400008900281ED06248E4B20C2101FB15
:101FC00004004068002816D05E48E4B20C2101FBF2
:101FD00004000089ADF8000010208DF803000320F4
:101FE0008DF8020000A95748E4B20C2202FB04005D
:101FF000406801F04DF85348E4B20C2101FB0400A5
:1020000000780728CCD0002201214E48E4B20C23EE
:1020100003FB0400007802F0AFF90500EDB2002DDB
:10202000BED05FF0FF3000E0002032BD80B5454AF1
:10203000C0B20C2303FB0022528989B28A4205D226
:102040004049C0B20C2202FB0011498989B23D4AC5
:10205000C0B20C2303FB0020007802F001FA02BD9D
:1020600080B50021ADF8001000A9364AC0B20C239B
:1020700003FB0020007802F039FABDF8000002BD31
:1020800038B5040000252000C0B2FFF7E9FF0500C5
:10209000ADB2022D00DBAD1E290089B22000C0B216
:1020A000FFF7C4FF32BD38B5040000252000C0B2E0
:1020B000FFF7D6FF0500ADB22248E4B20C2101FBC8
:1020C00004004089401E854200DAAD1C290089B217
:1020D0002000C0B2FFF7AAFF32BD10B5194AC0B246
:1020E0000C2303FB00221289002A17D0154AC0B224
:1020F0000C2303FB00225268002A0FD00A00D2B240
:102100001049C0B20C2303FB001109890D4BC0B26A
:102110000C2404FB0030406801F034F8002010BDAE
:1021200080B50849C0B20C2202FB00110989054A9A
:10213000C0B20C2303FB0020406801F018F802BD78
:10214000001801403878000810B5002402F06AFA3F
:1021500002F0D3FA0A2002F001FBDFF8C015086094
:10216000DFF8B8050068002808D15FF0FF34DFF819
:10217000B00501F03FF8200040B210BD02F046FB70
:1021800002F053FC02F06EF802F0FCF902F0F1FEEE
:1021900002F0B0FFFFF7E6FE040064B2002CE6D1C7
:1021A000FEF7E2FD02F011F803F0F4F80120DFF889
:1021B00074150870DFF8700501F01CF8200040B2BB
:1021C000DBE710B50024002410E0DFF850050068BC
:1021D000407A401EDFF8441509684872DFF83C0574
:1021E00000684068DFF834150860641CE4B20A2C0B
:1021F000E9DADFF828050068007A0028EED1DFF878
:102200001C050068407A0028DFD1DFF8100500685F
:10221000807A002806D0022822D012D3042839D090
:1022200031D349E0DFF8F4040068C17ADFF8FC0438
:1022300000F0E0FFDFF8E4040068C07A00F0A0F9E5
:102240003AE0DFF8D8040068C17ADFF8E40400F06F
:10225000D1FFDFF8C8040068C07A00F09EF92BE0D7
:102260003C20DFF8D0140870DFF8B0040068C17AB1
:10227000DFF8C40400F0BEFFDFF8A0040068C07AF5
:1022800000F0E3F918E0DFF8940400680B3000F088
:1022900057FA11E03C20DFF89C140870DFF87C044A
:1022A0000068C17ADFF8940400F0A4FFDFF86C0442
:1022B0000068C07A00F0FFF9DFF860040068006988
:1022C000002804D0DFF8540400680069804701202A
:1022D000DFF848140968087280E710B50400002090
:1022E000DFF84014087046210020FFF79FFE5021C0
:1022F0000520FFF79BFE50210320FFF797FE50219A
:102300000420FFF793FE00215FF080408184C046E7
:10231000002201215FF0804001F070FB47F2305154
:102320005FF080408185C04601215FF0804001F070
:1023300082FB012201215FF0804001F05FFB01215F
:102340005FF0804001F03BFB21002A2001F0B4FB4C
:1023500010BD80B500215FF0804001F030FB00210E
:102360005FF080408184C0462A2001F0B4FB01BDAB
:1023700080B500215FF0804001F021FB00215FF07B
:1023800080408184C0462A2001F0A5FB0021002066
:10239000FFF74CFE00210520FFF748FE0021032037
:1023A000FFF744FE00210420FFF740FE0120DFF884
:1023B0007C1C087001BD80B5FFF75AF80021002091
:1023C000FFF734FE00210520FFF730FE0021032037
:1023D000FFF72CFE00210420FFF728FE0120DFF884
:1023E0004C1C087001BD80B5DFF838030078022866
:1023F00014D0DFF830030078002802D1FFF7B8FFCF
:1024000013E0DFF820030078032802D1FFF7E0FB98
:102410000BE0DFF8F00BFFF760FF06E0DFF8100CD1
:102420000078052801D0FFF7C6FF01BD80B5BD4883
:102430000078032803D0BB480078002800D10CE0C6
:10244000B8480078022804D0DFF8E80BFFF745FF12
:1024500003E0FFF70DF8FFF789FC01BD10B504009C
:10246000DFF8C80B0078032804D0DFF8C00B007831
:10247000002800D11BE0DFF8B40B0078022810D050
:1024800046210020FFF7D2FD50210520FFF7CEFDA9
:1024900050210320FFF7CAFD50210420FFF7C6FD9D
:1024A00001E0FEF7E5FF2000C0B2FFF79FFC10BD82
:1024B00080B59C480078032803D09A48007800280B
:1024C00000D120E09748007802280CD05021052048
:1024D000FFF7ACFD50210320FFF7A8FD5021042099
:1024E000FFF7A4FD05E000210020FFF79FFDFEF7A8
:1024F000BFFFFFF72BFB0020DFF83C1B087000201C
:10250000DFF8381B087001BD80B5012085490870CF
:10251000DFF81C0B0078052802D1FFF764FF0FE0FD
:1025200000210020FFF782FD00210520FFF77EFD3E
:1025300000210320FFF77AFD00210420FFF776FD3C
:1025400001BD80B5032077490870FEF791FF002197
:102550000020FFF76BFD00210520FFF767FD00213C
:102560000320FFF763FD00210420FFF75FFD00203B
:10257000DFF8C41A08700020DFF8C01A087001BD27
:1025800080B568490978012903D1C0B202F070F81A
:1025900002E03C206749087001BD80B5C0B2002848
:1025A00005D002282AD012D3032845D04CE0DFF80A
:1025B000900A00F01FFE5B480078032806D1012036
:1025C000584908700521022001F036FD3CE0DFF893
:1025D000740A00F00FFE53480078022806D1DFF895
:1025E000500A0078042801D1FFF7ABFF03204D49C2
:1025F00008700420DFF8381A087025E0DFF8480A70
:1026000000F0F8FD47480078022814D1DFF8200ACE
:10261000007804280FD0DFF8180A007805280AD0BF
:10262000DFF80C0A0078012805D00521012001F00F
:1026300003FDFFF73DFF07E00521022001F0FCFC50
:10264000DFF8080A00F0D6FD01BD80B5C0B28A28C7
:1026500014D0AC282CD0B02819D0B22816D0B3286A
:1026600013D0B42810D0B5280BD0B8281CD0BA2865
:1026700016D0BC2810D0BE280AD01BE0FFF7B3FE4E
:1026800018E0FFF7D3FE15E014E013E012E011E0CC
:102690000020FFF7E3FE0DE00220FFF7DFFE09E078
:1026A0000120FFF7DBFE05E00320FFF7D7FE01E086
:1026B000FFF7FEFE01BD80B5C0B2002805D002289C
:1026C00020D013D3032825D026E01648007802280E
:1026D0000BD1DFF85C090078012803D10120FEF757
:1026E00043FF02E00020FEF73FFF15E0DFF860093E
:1026F00000F080FD4FF49671022002F04AFDFFF7D2
:102700005AFE09E04FF4E171032002F042FDFFF7A9
:10271000E1F801E0FFF7F8FE01BD00009804002099
:10272000287A0008CC040020F07A00085C7B0008BE
:102730006C7B00082F000020407A0008047B000812
:102740001CB50400DFF80C0900680190DFF8DC0814
:102750000078022840F05584DFF8D4080078042877
:1027600040F016846078462802D06078452801D170
:1027700000F047BC0020DFF8E018087006E0DFF842
:10278000D8080078401CDFF8D0180870DFF8C808B7
:102790000078DFF8C8180978884214D2DFF8C0083A
:1027A000DFF8B418097810EB41004078617888426E
:1027B000E5D1DFF8AC08DFF8A018097810F81100AF
:1027C00021788842DBD1DFF890080078DFF88C1898
:1027D0000978884280F0BC82DFF880080078DFF852
:1027E00078180978401ADFF87C180870DFF8740848
:1027F00000780228C0F276820020DFF86C1808709A
:1028000011E0BDF90200022190FBF1F0ADF80200E9
:102810000120DFF858180870DFF84C080078401CD9
:10282000DFF844180870DFF840080078DFF8341843
:102830000978884204D2DFF83408007800281ED0D6
:10284000DFF828080078002800F048819DF8000093
:10285000412804D09DF80000432840F05D82DFF855
:10286000DC070078002805D0DFF8D00700780228C0
:1028700040F0C5800020DFF8E01708705CE0DFF86A
:10288000E8070078401CDFF8E817087006E0DFF87A
:10289000E0070078401CDFF8D8170870DFF8D00791
:1028A0000078DFF8C01709788842B5D2DFF8B007A2
:1028B000DFF8B417097810EB41004078DFF8A01773
:1028C000DFF8AC27127811EB420149788842DED15B
:1028D000DFF88C07DFF89017097810EB410040789B
:1028E0008DF80000DFF88C07DFF87417DFF8782721
:1028F000127811F8121030F81100DFF87817DFF8AD
:102900006027DFF86C371B7812F8132031F81210AB
:102910000818ADF80200BDF90200B0F5B47F7FF4ED
:1029200070AF0020ADF8020072E7DFF82C070078E6
:10293000401CDFF824170870DFF81C070078DFF868
:1029400024170978884213D2DFF81407DFF8081734
:10295000097810EB41004078442809D0DFF80007DF
:10296000DFF8F416097810EB410040784228DCD1FA
:10297000DFF8E4060078DFF8EC16097888421DD30A
:102980000020DFF8D416087006E0DFF8CC060078E7
:10299000401CDFF8C4160870DFF8BC060078DFF8CA
:1029A000C4160978884209D2DFF8B406DFF8A81601
:1029B000097810EB410040784028E6D1DFF898060E
:1029C0000078DFF8A0160978884280F0A581DFF84A
:1029D0009006DFF88416097810EB410040788DF8F6
:1029E0000000DFF89006DFF87816DFF86C26127822
:1029F00011F8121030F81100ADF802008CE100203F
:102A0000DFF85416087006E0DFF84C060078401C2A
:102A1000DFF844160870DFF840060078DFF8441647
:102A20000978884209D2DFF83806DFF82C160978D1
:102A300010EB410040784028E6D1DFF81C06007812
:102A4000DFF820160978884227D30020DFF808161F
:102A5000087006E0DFF800060078401CDFF8F81583
:102A60000870DFF8F4050078DFF8F8150978884277
:102A700013D2DFF8EC05DFF8E015097810EB410020
:102A80004078442809D0DFF8D805DFF8CC1509785C
:102A900010EB410040784228DCD1DFF8BC0500781B
:102AA000DFF8C0150978884280F03681DFF8B0057C
:102AB000DFF8A415097810EB410040788DF800008C
:102AC000DFF8B005DFF89815DFF88C25127811F8DB
:102AD000121030F81100ADF802001DE1DFF85C05BE
:102AE0000078002804D0DFF85405007802287CD153
:102AF0000020DFF86415087006E0DFF85C05007858
:102B0000401CDFF854150870DFF84C050078DFF83A
:102B100054150978884213D2DFF84405DFF83815D8
:102B2000097810EB41004078442809D0DFF83005DF
:102B3000DFF82415097810EB410040784228DCD1F9
:102B4000DFF814050078DFF81C15097888421DD3DA
:102B50000020DFF80415087006E0DFF8FC040078B8
:102B6000401CDFF8F4140870DFF8EC040078DFF89C
:102B7000F4140978884209D2DFF8E404DFF8D814A5
:102B8000097810EB410040784028E6D1DFF8C8040E
:102B90000078DFF8D0140978884217D2DFF8C00433
:102BA000DFF8B414097810EB410040788DF800008C
:102BB000DFF8C004DFF8A814DFF89C24127811F8BD
:102BC000121030F81100ADF80200A5E0DFF8900413
:102BD00040788DF80000DFF89C04DFF88414097851
:102BE00030F81100ADF8020096E00020DFF868141C
:102BF000087006E0DFF860040078401CDFF8581425
:102C00000870DFF854040078DFF858140978884217
:102C100009D2DFF84C04DFF84014097810EB4100CA
:102C200040784028E6D1DFF830040078DFF834142B
:102C30000978884227D30020DFF81C14087006E0CA
:102C4000DFF814040078401CDFF80C140870DFF87B
:102C500008040078DFF80C140978884213D2DFF8F2
:102C60000004DFF8F413097810EB410040784428A1
:102C700009D0DFF8EC03DFF8E013097810EB41002E
:102C800040784228DCD1DFF8D0030078DFF8D41395
:102C90000978884217D2DFF8C803DFF8BC13097837
:102CA00010EB410040788DF80000DFF8C803DFF832
:102CB000B013DFF8A423127811F8121030F81100C5
:102CC000ADF8020028E0DFF8980340788DF80000A6
:102CD000DFF8A003DFF88813097830F81100ADF8A9
:102CE000020019E0DFF87803DFF87013097810EBC1
:102CF000410010F8010C8DF80000DFF87803DFF8D0
:102D00006013DFF85823127811EB420111F8021C0E
:102D100030F81100ADF80200BDF90200B52806DB5D
:102D2000BDF80200B0F5B470ADF8020003E0BDF8E4
:102D30000200ADF80200BDF902209DF80010CE4857
:102D400000F058FA0020C54908700020C7490870F3
:102D5000C2480078052802DB0020C049087060786E
:102D6000BF49BE4A127811EB420148702078BC4935
:102D7000BA4A127801F81200B8480078401CB749E6
:102D800008709DF804009DF80010884219D0BB48D7
:102D90000078401CB9490870B8480078062808DB5C
:102DA0009DF800008DF80400BDF80200ADF80600A3
:102DB00007E09DF804008DF80000BDF80600ADF8AE
:102DC00002009DF80000412803D09DF80000432830
:102DD00055D10120984908709DF80000412803D082
:102DE0009DF80000442824D1BDF9020010F1590FCC
:102DF00004DA05210020FEF795FEC4E0BDF90200CB
:102E00005A2804DA00210520FEF78CFEBBE0BDF94C
:102E100002005A2808D105210420FEF783FE05216F
:102E2000042001F009F9AEE005210120FEF77AFE49
:102E3000A9E0BDF902005A2804DB00210520FEF7B5
:102E400071FEA0E0BDF9020010F1590F04DB05216D
:102E50000020FEF767FE96E0BDF9020010F15A0F60
:102E600008D104210520FEF75DFE0521042001F0B4
:102E7000E3F888E001210520FEF754FE83E09DF889
:102E80000000442803D09DF80000422844D10220CD
:102E9000694908709DF80000412803D09DF80000A2
:102EA00044281CD1BDF902008730882804D20C21A7
:102EB0000020FEF737FE66E0BDF90200401EB32891
:102EC00004D200210C20FEF72DFE5CE00C210C202A
:102ED000FEF728FE0521022001F0AEF853E0BDF90F
:102EE00002008730882804D20C210020FEF71AFE49
:102EF00049E0BDF90200401EB32804D200210C2095
:102F0000FEF710FE3FE00C210C20FEF70BFE052122
:102F1000022001F091F836E09DF80000402832D1FF
:102F2000032045490870BDF902002E2804DB052165
:102F30000020FEF7F7FD26E0BDF90200012804DBC2
:102F400004210220FEF7EEFD1DE0BDF9020010F1A4
:102F50002D0F04DA00210520FEF7E4FD13E0BDF992
:102F60000200002804D502210420FEF7DBFD0AE060
:102F700004203149087003210320FEF7D3FD052109
:102F8000012001F059F82C4800782C49087038E0ED
:102F90003B480078002834D13A480078002830D1E6
:102FA0006078462802D0607845282AD12078012808
:102FB00002D0207802280FD11D480078012805D1C1
:102FC000012278210120FEF73FFD1AE0002278213E
:102FD0000120FEF739FD14E02078042802D0207883
:102FE00003280ED112480078012805D1012278214A
:102FF0000020FEF729FD04E0002278210020FEF7E2
:1030000023FD13BDED1C000880B502000A211E48F7
:10301000006801F0D5FB002805D01C4800F0EAF854
:103020005FF0FF3000E0002002BD0000CC04002073
:10303000CD0400206D1D0008CE040020CF04002028
:10304000B07800082479000890790008B079000869
:10305000187B0008AC7B0008D0040020D4040020BA
:10306000D8030020D3040020D1040020D504002080
:10307000D20400208C7B0008587A0008D604002077
:10308000C8040020C904002098040020707A0008B9
:10309000F0B400220026002400250023002791F828
:1030A00003C01CF00F0C624691F803C05FEACC6CC1
:1030B00001D58B781A430B781B0621D003680024B6
:1030C00006E0CD78482D02D10125A5400561641C9C
:1030D000082C14D20125A5400E882E40AE42F6D110
:1030E000A5000F2616FA05F7BB4312FA05F52B4388
:1030F000CD78282DE5D10125A5404561E7E703609E
:103100000B88FF2B26DD4368002420E0012514F105
:103110000806B5400E882E40AE4217D1A5000F26F6
:1031200016FA05F7BB4312FA05F52B43CD78282D87
:1031300004D1012514F10806B5404561CD78482D2C
:1031400004D1012514F10806B5400561641C082C62
:10315000DCD34360F0BC70470022806889B208422B
:1031600001D0012200E000221000C0B2704700220E
:10317000C06889B2084201D0012200E0002210009C
:10318000C0B27047D2B2002A02D089B2016101E018
:1031900089B24161704710B400220F2311F003047B
:1031A000E4B2A400A3401A000F4BC9B28C1053F82C
:1031B000243033EA02020C4BC9B28C1043F82420AD
:1031C000094AC9B28B1052F82320C0B211F0030390
:1031D000DBB29B0098401043034AC9B2891042F801
:1031E000210010BC7047000008000140002848BFC3
:1031F000404270470EB400B582B003A90091024668
:1032000000AB0121034878440A3002F09DF906BC66
:103210005DF810FB754800000021834A1268110018
:1032200031F44041014380480160704700217F4AEA
:10323000117000217D4A1170C0B2012802D004280B
:1032400004D007E001207949087003E005207749A0
:103250000870FFE7704775490968084373490860BB
:103260007047C0B272490860704730B40022002134
:10327000002300246C4D2D6815F00C052A00002A4F
:1032800004D0042A05D0082A06D021E0694901604B
:1032900020E0684901601DE06349096811F470117C
:1032A000614A126812F48033890C891C002B03D107
:1032B000614A514301600AE05B4A1268920303D5F8
:1032C0005D4A5143016002E05A4A5143016001E006
:1032D000584901605449096811F0F0021209574930
:1032E000545C0168E14041604F49096811F4E062B3
:1032F000120A5249545C4168E14081604A490968B8
:1033000011F46052D20A4D49545C4168E140C160F9
:103310004549096811F44042920B4949545CC1681F
:10332000B1FBF4F1016130BC7047C9B2002905D08E
:103330004449096808434349086005E04149096870
:1033400031EA00003F4908607047C9B2002905D042
:103350003D49096808433C49086005E03A49096865
:1033600031EA0000384908607047C9B2002905D029
:103370003649096808433549086005E0334909685A
:1033800031EA0000314908607047C9B2002905D010
:103390002F49096808432E49086005E02C4909684F
:1033A00031EA00002A4908607047C9B2002905D0F7
:1033B0002849096808432749086005E02549096844
:1033C00031EA0000234908607047C0B22249086012
:1033D000704710B4002200230021C0B24409E4B2B7
:1033E0002200012A02D10F490B6806E0022A02D10D
:1033F0000E490B6801E019490B68C0B210F01F02BA
:1034000033FA02F0C00701D5012100E000210800D5
:10341000C0B210BC70471148006850F080700F496E
:103420000860704700100240041002402010024063
:103430003C04424200127A0000093D0000000020D6
:103440001C00002014100240181002401C10024002
:103450000C1002401010024040044242241002406E
:103460002249084322490860704710B40021002215
:103470000F23C478002C1DD01D49096811F4E061A8
:10348000D1F5E061090AD1F10402CB4041789140C5
:1034900082781A4011430901164A03789954012190
:1034A000027812F01F029140134A0078401142F84E
:1034B000201009E00121027812F01F0291400F4A0A
:1034C0000078401142F8201010BC7047042806D143
:1034D0000B48006850F004000949086005E00848FE
:1034E000006830F004000649086070470000FA05E3
:1034F0000CED00E000E400E000E100E080E100E02D
:1035000010E000E080B5DFF86C1588420AD1012197
:103510004FF40060FFF739FF00214FF40060FFF720
:1035200034FFDDE0B0F1804F08D101210120FFF729
:103530003CFF00210120FFF738FFD1E0DFF838150C
:10354000884208D101210220FFF72FFF002102202D
:10355000FFF72BFFC4E0DFF82415884208D10121D2
:103560000420FFF722FF00210420FFF71EFFB7E031
:10357000DFF80C15884208D101210820FFF715FF5C
:1035800000210820FFF711FFAAE0DFF8F8148842B5
:1035900008D101211020FFF708FF00211020FFF7BC
:1035A00004FF9DE0DFF8E014884208D101212020CB
:1035B000FFF7FBFE00212020FFF7F7FE90E0DFF889
:1035C000CC1488420AD101214FF40050FFF7DDFEF0
:1035D00000214FF40050FFF7D8FE81E0DFF8B0146F
:1035E00088420AD101215FF40020FFF7CEFE0021BE
:1035F0005FF40020FFF7C9FE72E0DFF898148842FC
:103600000AD101215FF48010FFF7BFFE00215FF4B3
:103610008010FFF7BAFE63E0DFF87C1488420AD11D
:1036200001215FF40010FFF7B0FE00215FF40010ED
:10363000FFF7ABFE54E0DFF86414884208D10121A3
:103640004020FFF7B2FE00214020FFF7AEFE47E02A
:10365000DFF84C14884208D101218020FFF7A5FE35
:1036600000218020FFF7A1FE3AE0DFF838148842FD
:103670000AD101214FF48070FFF797FE00214FF42B
:103680008070FFF792FE2BE0DFF81C1488420AD10D
:1036900001215FF48030FFF778FE00215FF4803075
:1036A000FFF773FE1CE0DFF8041488420AD1012101
:1036B0005FF40030FFF769FE00215FF40030FFF790
:1036C00064FE0DE0DFF8E813884209D101215FF4C0
:1036D0008020FFF75AFE00215FF48020FFF755FE9F
:1036E00001BD002203881A00DFF88833984212D007
:1036F000DFF8983398420ED0B0F1804F0BD0DFF84E
:103700007833984207D0DFF87433984203D0DFF85B
:103710007033984204D14FF68F731A404B881A4386
:10372000DFF86033984208D0DFF85C33984204D069
:103730004FF6FF431A40CB881A4302808A8882855D
:103740000A880285DFF82C2390420FD0DFF83C2353
:1037500090420BD0DFF85023904207D0DFF84C2383
:10376000904203D0DFF84823904201D1097A0186C4
:1037700001218182704770B4002300240022058C4F
:103780004FF6FE7635400584058C2C0085882A008E
:10379000058B2B004FF68F752B404FF6FC752B4099
:1037A0000D882B434FF6FD752C400D892C434D8819
:1037B0002C43DFF8C052A8420FD0DFF8D052A84205
:1037C0000BD0DFF8E452A84207D0DFF8E052A8425D
:1037D00003D0DFF8DC52A84213D14FF6F7752C4026
:1037E0004D892C434FF6FB752C408D882C434FF6AA
:1037F000FF652A404FF6FF552A408D892A43CD891F
:103800002A4382800383C9888186048470BC704700
:1038100070B4002300240022058C4FF6EF7635406B
:103820000584058C2C0085882A00058B2B0048F622
:10383000FF752B404FF6FF452B400D8853EA0523BB
:103840004FF6DF752C400D8954EA05144D8854EA73
:103850000514DFF82052A84203D0DFF85852A842DE
:1038600017D14FF67F752C404D8954EA05144FF659
:10387000BF752C408D8854EA05144FF6FF352A4059
:103880004FF2FF752A408D8952EA8502CD8952EAAE
:10389000850282800383C9880187048470BC7047D5
:1038A00070B4002300240022058C4FF6FF663540DB
:1038B0000584058C2C0085882A00858B2B004FF60B
:1038C0008F752B404FF6FC752B400D882B434FF620
:1038D000FF552C400D8954EA05244D8854EA0524EF
:1038E000DFF89051A84203D0DFF8C851A84217D1A1
:1038F0004FF2FF752C404D8954EA05244FF6FF35F1
:103900002C408D8854EA05244EF6FF752A404DF66A
:10391000FF752A408D8952EA0512CD8952EA0512B7
:1039200082808383C9888187048470BC704770B4A7
:10393000002300240022058C4EF6FF7635400584D6
:10394000058C2C0085882A00858B2B0048F6FF7596
:103950002B404FF6FF452B400D8853EA05234DF6CB
:10396000FF752C400D8954EA05344D8854EA05341E
:10397000DFF80051A84203D0DFF83851A84205D142
:103980004BF6FF752A408D8952EA85128280838327
:10399000C988A0F84010048470BC704700210180E1
:1039A00000214180002181800021C180002101810E
:1039B00000214181002181810021C1817047C9B26C
:1039C000002904D0018851F00101018004E0018840
:1039D0004FF6FE72114001807047C9B2002906D02F
:1039E000B0F8441051F40041A0F8441005E0B0F8DC
:1039F00044104904490CA0F844107047D2B2002A80
:103A000003D082891143818103E0828932EA010176
:103A100081817047C9B2002904D0018851F080012A
:103A2000018004E001884FF67F72114001807047E9
:103A3000A0F84010704789B2C9430182704730B482
:103A4000002200230024058A0D402B0080890840B5
:103A500004009BB2002B04D0A4B2002C01D00122A0
:103A600000E000221000C0B230BC704789B2C943E8
:103A700001827047002C0140000400400008004013
:103A8000000C0040001000400014004000340140D1
:103A9000004C01400050014000540140001800401B
:103AA000001C004000200040004001400044014054
:103AB0000048014000340140C0B24F2801DA00291B
:103AC00002D15FF0FF3005E0DFF86424C0B242F8B5
:103AD000201000207047C0B24F2802DB5FF0FF309B
:103AE00006E00021DFF84824C0B242F82010002090
:103AF00070477047FEE7FEE7FEE7FEE77047704756
:103B0000704780B5DFF82804006A002803D0DFF88A
:103B10002004006A804701BD80B5022001F0BEFF8D
:103B200000280DD0072001F0CCFFDFF80404406B23
:103B3000002803D0DFF8F803406B804701F09DFFB9
:103B4000012001F0ABFF00280DD0012001F0B9FFEA
:103B5000DFF8DC03006B002803D0DFF8D403006B30
:103B6000804701F08AFF01BD80B50121DFF8C40361
:103B7000FFF765FF01280FD10121DFF8B803FFF738
:103B800075FFDFF8AC03D0F89C00002804D0DFF804
:103B9000A003D0F89C00804701BD80B501215FF0F3
:103BA0008040FFF74CFF00280FD001215FF08040DC
:103BB000FFF75CFFDFF87803D0F8A800002804D0F6
:103BC000DFF86C03D0F8A800804701BD80B5012163
:103BD000DFF86403FFF733FF00280FD00121DFF87F
:103BE0005803FFF743FFDFF84803D0F8AC00002884
:103BF00004D0DFF83C03D0F8AC00804701BD80B5AD
:103C00000121DFF83803FFF71AFF00280DD001214A
:103C1000DFF82803FFF72AFFC548D0F8B0000028D6
:103C200003D0C348D0F8B000804701BD80B5012162
:103C3000C348FFF704FF00280CD00121C048FFF75C
:103C400015FFBB48D0F81401002803D0B848D0F8BD
:103C50001401804701BD80B50121BA48FFF7EFFE8E
:103C600000280CD00121B748FFF700FFB048D0F87A
:103C70002401002803D0AE48D0F82401804701BDBC
:103C800080B50121B048FFF7DAFE00280CD00121F1
:103C9000AD48FFF7EBFEA648D0F82801002803D076
:103CA000A348D0F82801804701BD80B5A048D0F8CE
:103CB000CC00002803D09E48D0F8CC00804701BD3E
:103CC00080B59B48D0F8D000002803D09848D0F8A1
:103CD000D000804701BD80B5012000F08BF900289D
:103CE00009D09348006C002802D09148006C8047AE
:103CF000012000F091F901BD80B5022000F07AF9B1
:103D0000002809D08A48406C002802D08848406CBE
:103D10008047022000F080F901BD80B5042000F04A
:103D200069F9002809D08248806C002802D08048B8
:103D3000806C8047042000F06FF901BD80B5082039
:103D400000F058F9002809D07948C06C002802D04A
:103D50007748C06C8047082000F05EF901BD80B54F
:103D6000102000F047F9002809D07148006D0028A4
:103D700002D06F48006D8047102000F04DF901BD62
:103D800080B5202000F036F900280BD06848D0F824
:103D90008400002803D06648D0F8840080472020A3
:103DA00000F03AF9402000F025F900280BD06048D7
:103DB000D0F88800002803D05D48D0F888008047FC
:103DC000402000F029F9802000F014F900280BD0E1
:103DD0005748D0F88C00002803D05548D0F88C0004
:103DE0008047802000F018F94FF4807000F002F94D
:103DF00000280CD04E48D0F89000002803D04C4842
:103E0000D0F8900080474FF4807000F005F94FF42F
:103E1000007000F0EFF800280CD04548D0F894006E
:103E2000002803D04248D0F8940080474FF4007037
:103E300000F0F2F801BD80B54FF4806000F0DAF8D0
:103E400000280CD03A48D0F8D800002803D03848D1
:103E5000D0F8D80080474FF4806000F0DDF84FF4D0
:103E6000006000F0C7F800280CD03148D0F8DC0022
:103E7000002803D02E48D0F8DC0080474FF40060C3
:103E800000F0CAF84FF4805000F0B4F800280CD0CD
:103E90002748D0F8E000002803D02548D0F8E000FB
:103EA00080474FF4805000F0B7F84FF4005000F016
:103EB000A1F800280CD01E48D0F8E400002803D058
:103EC0001B48D0F8E40080474FF4005000F0A4F8FD
:103ED0004FF4804000F08EF800280CD01448D0F841
:103EE000E800002803D01248D0F8E80080474FF4DB
:103EF000804000F091F84FF4004000F07BF800287B
:103F00000CD00B48D0F8EC00002803D00848D0F8BB
:103F1000EC0080474FF4004000F07EF801BD80B512
:103F20000348806F002802D00148806F804701BDA0
:103F300008020020002C014000040040000800405E
:103F4000000C0040001000400014004000203449E4
:103F500008600020334908600020334908600020D1
:103F600032490860324833490860704700212C4AC2
:103F700011008279002A35D0294A126803689A43D1
:103F8000274B1A60274A126803689A43254B1A6028
:103F9000027951180A6803681A430A6022490968BD
:103FA00002689143204A11602049096802689143E0
:103FB0001E4A1160417910290CD11B490968026819
:103FC0001143194A116019490968006808431749E3
:103FD00008600EE01249427951180A6800681043DF
:103FE000086006E0027951180A68006832EA0000A9
:103FF0000860704700210022094B1B6803401A002B
:104000000C4B1B68034203D0002A01D0012100E0C1
:1040100000210800C0B270470649086070470000E0
:104020000004014004040140080401400C04014064
:10403000FFFF0F0014040140C9B20B2903DA7F4AC5
:1040400010707F480170704710B500247D480078DB
:104050000A2190FBF1F201FB1200002820D1002080
:104060007849087076480078774908707448007875
:1040700075494870724800787349887070480078B4
:10408000D0F10A00714908706D480078D0F10A003B
:104090006E4948706A480078D0F10A006B49887010
:1040A000002415E06A48E4B20C2101FB04000189F8
:1040B0006748E4B20C2202FB0400406889B2416107
:1040C0006248E4B2205C401E6049E4B26054641C63
:1040D000E4B2032C43D2594800782041C007E1D50F
:1040E0005948E4B2205C0028DCD056480078022110
:1040F00090FBF1F202FB1102002A04D15348E4B212
:10410000205C002815D15248E4B20C2101FB0400C8
:1041100001894F48E4B20C2202FB0400406889B2D6
:1041200001614948E4B2205C401E4749E4B2605452
:10413000CDE74748E4B20C2101FB04000189444863
:10414000E4B20C2202FB0400406889B241613F489E
:10415000E4B2205C401E3D49E4B26054B7E7394800
:104160000078401C3749087010BDE0B500218DF87B
:10417000001002218DF8021000218DF8011000219D
:1041800002918DF8030000A8FEF73EFF07BDE0B5E1
:1041900000208DF8000002208DF8020000208DF82C
:1041A0000100002002908A208DF8030000A8FEF78D
:1041B0002BFF3C202749087007BD264800780428BB
:1041C00002DB032023490870704700B587B0012146
:1041D0002020FFF7BAF803208DF8020010208DF898
:1041E00003000420ADF8000000A91B48FEF750FFB3
:1041F0000820ADF8000000A91748FEF749FF10207D
:10420000ADF8000000A91448FEF742FF0521022086
:10421000FFF712FF01F064FC202001900E4802908D
:104220004020ADF80C000D4804900D48059001A801
:1042300001F095FC01F08DFC07B000BDBE0400202C
:10424000BF040020C0040020780400207C0400206B
:10425000007900082F00002000140140BB41000835
:104260008F4100081FB500240020040042E0012116
:10427000DFF86403E4B222011058FFF776F8DFF8A4
:104280005803E4B210EB04108089401EADF808001A
:10429000DFF848030068DFF84013E4B211EB0411C3
:1042A0008989B0FBF1F0DFF83013E4B211EB0411AF
:1042B0008968B0FBF1F0401EADF804000020ADF8B5
:1042C0000A000020ADF8060000208DF80C0001A9BE
:1042D000DFF80403E4B210EB04104068FFF701FAC2
:1042E0000121DFF8F402E4B210EB04104068FFF79C
:1042F00091FB641CE4B2032C16D2DFF8DC02E4B2BA
:1043000010EB04104068FFF7FDF8B348E4B2210158
:104310000858B0F5807FAAD90121AF48E4B2220144
:104320001058FFF712F8AAE700241FE00121AC485B
:10433000E4B210EB0410406850F00100FFF705F8FC
:10434000A748E4B210EB04108089ADF800001820F3
:104350008DF8030003208DF8020000A9A048E4B204
:1043600010EB04108068FEF793FE641CE4B2072C87
:10437000DCD3002004B010BD7FB504000E00150092
:10438000E4B2072C02DB5FF0FF3067E0924894490B
:10439000E4B211EB0411497810EB01108089ADB241
:1043A000854202D35FF0FF3058E000A8FFF7F6FA2D
:1043B0006020ADF800000120ADF80200F6B2002E3A
:1043C00003D00020ADF8080002E00220ADF808009C
:1043D0000020ADF80C00ADF806508148E4B2210190
:1043E000085C012806D038D303281DD00FD3042839
:1043F00027D032E000A97848794AE4B212EB0412DF
:10440000527810EB02104068FFF7B5F925E000A9DB
:104410007148734AE4B212EB0412527810EB0210A6
:104420004068FFF7F5F918E000A96B486C4AE4B260
:1044300012EB0412527810EB02104068FFF730FACA
:104440000BE000A96448664AE4B212EB0412527809
:1044500010EB02104068FFF76AFA002004B070BD4C
:1044600080B55F4AC0B203019A5C012A06D03AD3F4
:10447000032A1ED010D3042A28D034E089B2564A29
:10448000574BC0B213EB0010407812EB001040689D
:104490008186C046002002BD89B24F4A504BC0B24F
:1044A00013EB0010407812EB001040680187C04603
:1044B000F0E789B2484A4A4BC0B213EB001040788B
:1044C00012EB001040688187C046E3E789B2424A98
:1044D000434BC0B213EB0010407812EB0010406861
:1044E000FFF7A6FAD6E75FF0FF30D4E710B50C006F
:1044F0000021C0B2072802DB5FF0FF3041E0384AFC
:10450000C0B203019A5C012A06D038D3032A1DD019
:104510000FD3042A27D032E02F49314AC0B212EB20
:104520000010407811EB00104068808EC0460100FA
:1045300025E029492A4AC0B212EB0010407811EB5D
:1045400000104068008FC046010018E02249244A4C
:10455000C0B212EB0010407811EB00104068808F61
:10456000C04601000BE01C491D4AC0B212EB00100E
:10457000407811EB00104068B0F840000100218045
:10458000002010BD10B500240020040020E001210F
:104590001148E4B210EB04104068FFF710FA0E481F
:1045A000E4B210EB041040680E49884207D00A4874
:1045B000E4B210EB041040680B49884207D1012196
:1045C0000548E4B210EB04104068FFF706FA641CDB
:1045D000E4B2032CDBD310BD80780008200000205B
:1045E000C8770008002C014000340140E0B52B489A
:1045F0000078401E2949087028480078002810D10A
:1046000000208DF8000000208DF8010000208DF8BA
:1046100002000020029004208DF8030000A8FEF79D
:10462000F3FC07BD80B501210420FEF78EFE4FF498
:104630000070ADF8000010208DF8030003208DF805
:10464000020000A91648FEF723FD01215FF080500B
:10465000FEF78BFE012001F00BFB01224FF40071ED
:104660000F48FEF78FFD4FF4FA7001F021FB01BDFA
:1046700080B5C0B2401E03D0401E022801D90AE016
:1046800009E000F018FF00224FF400710448FEF723
:1046900079FD01F0F1FA002002BD00002F0000209A
:1046A0000008014080B501215FF0C050FEF75DFEBB
:1046B000012001F0D9FA01F021FB0120FEF7B6FD3F
:1046C0004120FEF786FE0028FAD04FF48070FEF7F6
:1046D000C2FD0120FEF7C5FD01F0D4F901F0CDF9CE
:1046E0000121012001F09CF901F0C7F947F6FF70A4
:1046F00001F0B5F901F0C1F901BD80B503208DF8D5
:10470000000002208DF8010002208DF80200012037
:104710008DF8030000A8FEF7A8FE042001F004FBBA
:104720004AF2A551884207D0FFF7BCFF4AF2A551D3
:10473000042001F0EBFA07E001F0A4F901210120C7
:1047400001F06EF901F099F9FEF765FE02490C20BF
:10475000FFF7B2F901BD0000ED4500082DE9F04179
:1047600004000025002600275FF00008142002F056
:1047700084F9060014210022300002F0DBFA012047
:1047800030723700002080460FE0142002F075F9E7
:10479000050014210022280002F0CCFA0120287222
:1047A0007D602F602F0018F101085FFA88F8E4B2ED
:1047B000601E8045E9DB6E6035603000BDE8F08149
:1047C00070B50C0011000025002801D0002902D18D
:1047D0005FF0FF3019E0002501E040686D1CEDB28C
:1047E000E4B2A54208D2027A002AF6D00C2210F1D7
:1047F0000806300002F0E8FAEDB2E4B2A54202D1B8
:104800005FF0FF3000E0002040B270BD00B591B015
:1048100001211C20FEF799FD0420ADF800000020C6
:104820008DF8030000A99248FEF732FC1020ADF885
:10483000000000A98E48FEF72BFC0220ADF8000016
:1048400000A98B48FEF724FC0120ADF8000000A968
:104850008848FEF71DFC0820ADF8000000A9844838
:10486000FEF716FC0220ADF8000000A98148FEF713
:104870000FFC2020ADF8000000A97E48FEF708FCE0
:104880000120ADF8000000A97B48FEF701FC2020C4
:10489000ADF8000000A97648FEF7FAFB0220ADF85B
:1048A000000000A97448FEF7F3FB8020ADF800007B
:1048B00000A96F48FEF7ECFB4020ADF8000000A90E
:1048C0006B48FEF7E5FB0420ADF8000000A969483D
:1048D000FEF7DEFB0820ADF8000000A96548FEF7F2
:1048E000D7FB1020ADF8000000A96248FEF7D0FB0E
:1048F00001210120FEF719FD604802F0B1FA60487D
:10490000069060480790002008900F200990002032
:104910000A9080200B904FF480700C904FF48060D0
:104920000D9020200E904FF400500F90002010901A
:1049300006A9524802F019FB01214FF40070FEF75E
:1049400004FD4FF40040FEF767FC002001900120B9
:104950008DF8080001208DF809005FF460200390B5
:10496000002004900F208DF8140001A9464802F0A1
:1049700045FB052301220221434802F0AAFB05233F
:1049800002220121404802F0A4FB05230322042156
:104990003D4802F09EFB052304220A213A4802F01A
:1049A00098FB052305220321374802F092FB0523DB
:1049B00006220B21344802F08CFB052307220F212D
:1049C000314802F086FB0523082208212E4802F018
:1049D00080FB0523092205212B4802F07AFB0523E1
:1049E0000A220921284802F074FB05230B22072123
:1049F000254802F06EFB05230C220621224802F016
:104A000068FB05230D220C211F4802F062FB0523E1
:104A10000E220D211C4802F05CFB05230F220E2103
:104A2000194802F056FB11B000BD80B501211348B2
:104A300002F0BAFA0121144802F013FB01211248D6
:104A400002F002FB104802F019FB0F4802F01BFBBA
:104A50000028FAD10C4802F020FB0B4802F022FBA0
:104A60000028FAD10121084802F026FB01BD000010
:104A70000008014000100140000C01400800024005
:104A80004C2401408C0300200024014080B500200C
:104A90000021080017E0DFF88015C0B211EB4001DB
:104AA0004988DFF87425C0B222F81010DFF86815C5
:104AB000C0B211EB40018989DFF85C25C0B212EB6E
:104AC00040025181401CC0B20428E4DBDFF84C05F1
:104AD000408BDFF844150881DFF84005008BDFF8D4
:104AE00038154882DFF838050078052807DADFF83E
:104AF00030050078401CDFF82815087087E1002099
:104B0000DFF8201508600020DFF818154860002045
:104B100019E0DFF810150968DFF8FC24C0B232F89C
:104B200010205118DFF8FC241160DFF8F8144968F0
:104B3000DFF8E424C0B212EB400252895118DFF8CA
:104B4000E4245160401CC0B20528E2DBDFF8D40445
:104B500000680521B0FBF1F0DFF8C8140860DFF849
:104B6000C40440680521B0FBF1F0DFF8B8144860D8
:104B70008021DFF8B404FEF7EFFA002800F09080FF
:104B8000DFF8A8048078002807D002282DD022D38F
:104B9000042800F0808056D3FCE00120DFF88C145C
:104BA00048700020DFF8881408700120DFF88014B6
:104BB00088700020DFF8781448700FF2B520DFF815
:104BC000701488600120DFF86814C870DFF8600492
:104BD000FEF71AFADEE0DFF85C040078002803D064
:104BE0000220DFF848144870D4E000F05DF9002896
:104BF0001ED000F04FF90320DFF830144870002079
:104C0000DFF82C1408700120DFF8241488700220CB
:104C1000DFF81C1448700FF26920DFF81414886064
:104C20000320DFF80C14C870DFF80404FEF7ECF979
:104C3000DFF804040288DFF8F4030178DFF8FC03EE
:104C4000FEF7D8FAA6E0DFF8EC030078002821D1BF
:104C5000DFF8D803007864281CDA0120DFF8CC13D1
:104C600048700020DFF8C81308700120DFF8C01377
:104C700088700420DFF8B81348700FF2F510DFF8E1
:104C8000B01388600120DFF8A813C870DFF8A00314
:104C9000FEF7BAF97EE00020DFF89013487079E063
:104CA000DFF888038078002806D0022840D026D379
:104CB00004286CD055D36DE0DFF878030078002825
:104CC0001CD1DFF8680300780F2817DA0020DFF81E
:104CD000601308700120DFF8581388700420DFF893
:104CE000501348700020DFF8481388600220DFF876
:104CF0004013C870DFF83803FEF786F94AE0002059
:104D0000DFF8281348700020DFF824130870012012
:104D1000C74988700320C64948700FF26510C4491E
:104D200088600020C249C870C148FEF76DF931E0C3
:104D300000F0B0F80020BD4948700020BC49087060
:104D40000120BB4988700320B94948700FF2311027
:104D5000B74988600020B649C870B548FEF754F9D5
:104D600018E00020B14948700020B14908700120C6
:104D7000AF4988700320AE4948700020AC49886074
:104D80000020AB49C870AA48FEF73EF902E00020B7
:104D9000A6494870A348006840F68221884225D37E
:104DA000A2484078022810D09E480068A0F68120D2
:104DB00002F0F6F9A24902F003FAA24902F07EFAE3
:104DC00002F0E8FA994908701DE096480068A0F6DC
:104DD000812002F0E5F99C4902F0F2F9994902F0CC
:104DE0006DFA02F0D7FA914908700CE08D4800681E
:104DF00040F6EF41884203D364208C49087002E0FA
:104E000000208A490870894840788849887001BD27
:104E100080B50020ADF8000000A90220FFF766FB76
:104E2000BDF80000022804DBBDF80000401EADF80C
:104E30000000BDF800100220FFF712FB02BD80B594
:104E40000020ADF8000000A90220FFF74FFBBDF8DD
:104E50000000B0F5967F04DABDF80000401CADF804
:104E60000000BDF800100220FFF7FAFA02BD0000B2
:104E700080B57648FEF7BEF901206E49087001BD85
:104E800080B56A4801787248FEF7B4F90020694994
:104E9000087001BD80B5002067490880002102200C
:104EA000FFF7DEFAC0B202BD80B56A480178C9B228
:104EB0000420FFF7C1F8684890F90000012809DBD9
:104EC000644890F900000A2804D15FF0FF3062497D
:104ED00008700CE0604890F90000002807D55D4894
:104EE00090F90000002802D101205B490870594860
:104EF00000785949097808185649087049480068E7
:104F000040F6FE2188420ED2464840683C2803D233
:104F1000FFF795FF002002BD424840684228F9D3C0
:104F2000FFF776FFF6E73F48006840F62C518842CD
:104F30000FD23C484068B0F5B87F02D8FFF77FFF3A
:104F4000E8E738484068B0F5BD7FE3D9FFF760FF78
:104F5000E0E7FFF75DFF334840682028DAD23648A3
:104F60000088411C344A118080B26428D2DB0120C1
:104F7000D1E700B585B001212020FEF7E6F98020B9
:104F8000ADF8040004208DF8070003208DF806001A
:104F900001A92548FEF77CF8002201210220FFF735
:104FA000EBF932208DF8000003208DF8010003207A
:104FB0008DF8020001208DF8030000A8FEF755FAD5
:104FC00001210820FEF7D1F92448FEF79BFA42F2AE
:104FD0000F70ADF80C0040F2CF20ADF808000020B3
:104FE000ADF80E000020ADF80A0002A91B48FEF73C
:104FF00078FB01211948FEF71EFD01220121174807
:10500000FEF7FCFC16494520FEF756FD012113482A
:10501000FEF7D5FC05B000BDC40300208C030020C2
:10502000BA040020380400200014014010000020C1
:10503000FC030020BB040020A0040020F879000835
:1050400000401B440000C84200C02A44A07A000867
:10505000B47A0008BC0400202C000020000C0040A2
:105060008D4A000880B564480088401C6249088069
:1050700062480078022190FBF1F202FB1102002A43
:105080001CD15D4800885E49098890FBF1F201FB64
:105090001200002804D159480078401E5749087072
:1050A00055480088022190FBF1F202FB1102D2B2B6
:1050B0004FF400615348FEF765F81AE04F48007856
:1050C000012807D100215048FEF779FC00204A4909
:1050D00008800EE0484800884949098890FBF1F2B1
:1050E00001FB1200002804D144480078401E4349C7
:1050F000087001BD00B585B001212020FEF725F91B
:105100004FF40060ADF8040010208DF80700032074
:105110008DF8060001A93B48FDF7BAFF4FF4006186
:10512000384889B2416136208DF8000003208DF89F
:10513000010003208DF8020001208DF8030000A873
:10514000FEF793F901211020FEF70FF92E48FEF724
:10515000D9F91820ADF80C0040F2CF20ADF80800C6
:105160000020ADF80E000020ADF80A0002A9264884
:10517000FEF7B7FA01212448FEF75DFC0122012168
:105180002148FEF73BFC21494920FEF795FC05B07C
:1051900000BD38B505000C0000F021F8EDB2012D7E
:1051A00006D01BD3032D11D00CD3042D12D015E043
:1051B0000220124908701248048001211248FEF7AB
:1051C000FEFB31BD04200D490870F4E706200B49B1
:1051D0000870F0E7FF2009490870ECE7F1E780B5B7
:1051E00000210948FEF7EBFB00200449087000206D
:1051F0000149088001BD0000A2040020BD04002078
:1052000024000020001401400010004065500008F8
:1052100080B50021B04AC0B2825C002A00F09680BE
:10522000AE490988AE4AC0B222F81010AD49C0B2EA
:1052300031F81010AA4AC0B232F81020914209D2B7
:10524000A749C0B231F81010A64AC0B232F81020F7
:10525000891A0BE042F21071A24AC0B232F8102053
:10526000891A9F4AC0B232F8102051189E4AC0B223
:1052700022F810100021984AC0B281549B49C0B254
:10528000415C002947D09849C0B231F810108339E9
:1052900031292ED20021964AC0B2825C5200944B32
:1052A000C0B2C254924AC0B2825C1143904AC0B2AA
:1052B00081549049C0B2415C491C8E4AC0B28154AD
:1052C0008C49C0B2415C09294AD10021874AC0B249
:1052D00081540021874AC0B281548549C0B2415CE3
:1052E00047292ADA8249C0B2415CC0B200F018F9FD
:1052F00036E07D49C0B231F810103D39272901D27E
:105300000121C8E700217B4AC0B281540021774ABD
:10531000C0B2815424E07449C0B231F81010A1F237
:105320001911272904D20121704AC0B28154C0E763
:105330000021704AC0B2815412E06D49C0B2405C95
:105340006D49087001206D49087009E063490988BA
:10535000644AC0B222F8101001215F4AC0B28154E1
:1053600001BD80B50020FFF753FF01BD80B50120CE
:10537000FFF74EFF01BD80B50220FFF749FF01BDD9
:1053800080B50320FFF744FF01BD80B50420FFF77F
:105390003FFF01BD00B585B001216420FDF7D5FFB9
:1053A0004FF48050ADF8040048208DF8070001A9A3
:1053B0005348FDF76DFE1020ADF8040001A95148D7
:1053C000FDF766FE2020ADF8040001A94C48FDF76A
:1053D0005FFE0220ADF8040001A94948FDF758FE20
:1053E0004FF48070ADF8040001A94748FDF750FE66
:1053F0000C210320FDF7CFFE04210420FDF7CBFE96
:1054000005210320FDF7C7FE01210320FDF7C3FEA0
:1054100008210020FDF7BFFE28208DF800000120A4
:105420008DF8010000208DF8020001208DF80300A6
:1054300000A8FEF71AF80A208DF8000000A8FEF771
:1054400014F817208DF8000000A8FEF70EF80720CA
:105450008DF8000000A8FEF708F817208DF800006E
:1054600000A8FEF702F841F23210029000208DF8F9
:105470000C0010208DF80D0001208DF80E0002A800
:10548000FEF774FD21493820FEF716FB2049142051
:10549000FEF712FB1F492120FEF70EFB1E491120CB
:1054A000FEF70AFB1D492420FEF706FB642000F0EE
:1054B000FFFB05B000BD80B5FEF748FD01BD80B51E
:1054C00001000E480078002805D00B480078884776
:1054D00000200A49087001BD50040020240C00403F
:1054E0001404002008040020200400205804002098
:1054F0004004002048040020C1040020C204002011
:1055000000140140001801400008014063530008E6
:105510006D53000877530008815300088B5300082F
:10552000E0B500228DF8002001228DF80120032231
:105530008DF80220002202928DF803008DF80410ED
:1055400000A8FDF761FD07BD2DE9F04F93B080463F
:1055500002AE002092461D460291B0610DF1300965
:105560000AE01AF8011B0298C0470290002800F0D8
:10557000AA81B069401CB0619AF8000008B9B0690E
:10558000A3E12528EDD10020F0603061706101E0D9
:1055900040F001001AF8011F2029F9D023290DD06D
:1055A0002B2904D02D2906D030290AD00CE040F058
:1055B000020080B2EEE740F00400FAE740F0080095
:1055C000F7E740F01000F4E72A290FD12968296095
:1055D00051F8042B29603262002A04D5514240F070
:1055E0000400316280B20AF1010A15E00021316243
:1055F0000CE0316A6FF00043994205D001EB810362
:1056000002EB4301303931620AF1010A9AF80020B5
:10561000A2F130010A29ECD39AF800102E2903D008
:105620004FF0FF31F16122E01AF8011F2A2908D159
:10563000296829600AF1010A51F8042B2960F261F6
:1056400015E00021F1610CE0F1696FF0004399422F
:1056500005D001EB810302EB43013039F1610AF11E
:10566000010A9AF80020A2F130010A29ECD3B08493
:105670000FF2A4309AF8001001F0AEFE08B11AF84B
:10568000010B8DF82E009DF82E00682804BF9AF8B3
:105690000000682804D162208DF82E000AF1010A6A
:1056A0000CA8B0601AF8014B252C13D0582C38D018
:1056B000632C00F09080642C18BF692C65D06F2C8F
:1056C0002FD0702C23D0732C0AD0752C18BF782CB7
:1056D00027D08AE00120F06025208DF830008FE08F
:1056E0002868286050F8044B28607460F769002F20
:1056F00004D5204601F07CFE074606E03A4600212C
:10570000204601F091FE00B1071B376178E0286860
:10571000286050F8041B286001910CA87060782163
:1057200055E09DF82E206C2A0DD0712A18BF6A2AE8
:1057300009D12868C01D20F007032B60D3E90001C0
:1057400008332B6004E02968296051F8040B2960B4
:105750000190682A02D101A8008803E0622A02D1E0
:1057600001A80078019096F8240000072AD5019836
:1057700040B344F02000782824D130208DF8300048
:1057800089F801400220F0601CE029469DF82E00B7
:1057900000F09EF80190002804D5F068411CF160EB
:1057A0002D210DE0B08C810704D5F068411CF1601B
:1057B0002B2105E0C00705D5F068411CF1602021D0
:1057C00000F80910F1680CA808187060214601A8BB
:1057D00000F0A4F814E00120F0602868286050F878
:1057E000041B28608DF830100AE00120F0602520AD
:1057F0008DF8300024B1F068411CF16000F80940D8
:10580000306AF168401A7169401A3169441A96F891
:10581000240040070FD420208DF80000002708E066
:10582000012300AA01A9404600F0DFF800284AD170
:105830007F1CA742F4DBF7680DF1300B0AE01BF880
:10584000011B0298C047029000283CD0B069401C60
:10585000B0617F1E002FF2D130208DF800004FF094
:10586000000B776908E0012300AA01A9404600F077
:10587000BCF840BB0BF1010BBB45F4DB3769D6F834
:1058800004B009E01BF8011B0298C0470290D0B198
:10589000B069401CB0617F1E002FF3D196F8240040
:1058A00040077FF569AE20208DF8000000E07F1CE6
:1058B000A742BFF661AE012300AA01A9404600F04D
:1058C00094F80028F3D04FF0FF3013B0BDE8F08F0C
:1058D000622815D068280CD06C2818BF742816D000
:1058E0007A2814D10A680A6052F8040B0A60002171
:1058F00070470A680A6052F8040B0A6000B20BE0B5
:105900000A680A6052F8040B0A6040B204E00A68B0
:105910000A6052F8040B0A60C1177047F0B4C268FD
:105920006F2908BF082405D041F02003782B14BF4D
:105930000A241024066818233746642918BF6929E9
:1059400002D1002E48BF7F425FB9056A4DB9082CCD
:1059500027D190F82810090723D530211723D175B6
:105960001FE0B7FBF4F604FB167730375D1EFFB27D
:105970002B463A2FA4BFA1F1510C6744AF54370016
:1059800003D085689E18B542EBD3082C09D190F856
:105990002810090705D5995C302902D05B1E3021FB
:1059A0009954C3F1180141619A188260026A9142C8
:1059B00008DA511A81614FF6EF72018D11400185AD
:1059C000F0BC7047002A0ED590F8282002F014028F
:1059D000102A08D1426A0369D21A8369D21A531A6B
:1059E000012BA8BF8361F0BC7047F8B504460D4693
:1059F00016461F46002004E0E869401CE8617F1E4F
:105A0000002047B116F8011B6868A04768600028AD
:105A1000F2D14FF0FF30F2BD686C747A4C00000098
:105A2000C9B2002905D02A490988084328490880B5
:105A300005E02749098831EA0000254908807047B8
:105A40002448008850F010002249088070472148FF
:105A500000884FF6EF7108401E490880704710B566
:105A60000400FFF7EDFF200C10F00F001A4908802A
:105A70001A480480FFF7EBFF10BD16480088800627
:105A8000FBD57047134800884FF6F771084011495D
:105A90000880104800880007FBD5704700210D4A98
:105AA0001288024011000A4A128892B2024204D0BF
:105AB000C9B2002901D0012100E000210800C0B2D4
:105AC00070470449098831EA00000249088070479C
:105AD0000028004004280040082800400C2800400E
