:020000040800F2
:10000000E809002045010008AD790008AF79000833
:10001000B3790008B7790008BB7900080000000038
:10002000000000000000000000000000BF79000890
:10003000C179000800000000C3790008C5790008F4
:10004000D57900085F0100085F010008E979000820
:100050005F0100085F0100085D7B00087B7B0008F2
:10006000997B0008B77B0008D57B00085F0100087A
:100070005F0100085F0100085F0100085F010008E0
:100080005F0100085F0100085F0100085F010008D0
:10009000817D00085F0100085F010008F37B000814
:1000A0005F010008297A00085F0100085F0100086D
:1000B000517A0008777A00089D7A00085F010008ED
:1000C0005F0100085F0100085F0100085F01000890
:1000D0005F010008357B0008497B00085F010008CC
:1000E000957C00085F0100085F0100085F010008BF
:1000F0005F0100085F0100085F0100085F01000860
:100100005F0100085F010008C37A00085F01000872
:100110005F0100085F010008E97A00080F7B000812
:100120005F0100085F0100085F0100085F0100082F
:10013000DFF80CD007F01CFF00480047FD2900083D
:10014000E80900200648804706480047FEE7FEE72A
:10015000FEE7FEE7FEE7FEE7FEE7FEE7FEE7FEE777
:1001600011020008310100080CB500200190009038
:100170005E48006840F480305C49086000BF5B481E
:10018000006800F4003000900198401C0190009835
:1001900018B90198B0F5A06FF1D15448006800F487
:1001A000003010B10120009001E000200090009884
:1001B000012828D14E48006840F010004C490860E2
:1001C0000846006820F003000860084600680860E0
:1001D00046484068454948600846406848600846C7
:1001E000406848600846406820F0030048600846C0
:1001F000406840F00100486000BF3C48406800F0A3
:100200000C000428F9D10CBD10B5FFF7ADFF10BDEF
:1002100010B53648006840F00100344908600846CF
:10022000406834490840314948600846006832490E
:1002300008402E4908600846006820F480200860C5
:100240000846406820F4FE0048604FF41F008860B4
:10025000FFF7DAFF4FF000602849086010BD10B5C5
:10026000002100200022214B5B6803F00C0121B12A
:10027000042906D0082928D107E0214B214C23600E
:1002800027E01F4B1F4C236023E0184B5B6803F4EF
:100290007010164B5B6803F48032022303EB90402E
:1002A00022B9194B4343174C23600DE00F4B5B6899
:1002B00003F4003323B1144B4343124C236003E097
:1002C0000F4B43430F4C236003E00D4B0D4C236059
:1002D00000BF00BF054B5B68C3F303130B4CE15C2D
:1002E000084B1B68CB40074C236010BD0010024038
:1002F000002002400000FFF8FFFFF6FE08ED00E0DE
:1003000000127A000000002000093D0004000020D7
:1003100031490143314A1160704770B50021002313
:100320000F22C47804B32D4C246804F4E064C4F5AF
:10033000E064210AC1F10403CA40447804FA03F1DD
:100340008478144021430901254C0678A15504788E
:1003500004F01F050124AC4005786D11AD0005F1D6
:10036000E025C5F8004109E0047804F01F050124E8
:10037000AC401C4D0678761145F8264070BD1A4AEF
:100380000A400243154B1B1F1A60704739B1134ACC
:10039000121D12680243114B1B1D1A6006E00F4A22
:1003A000121D126882430D4B1B1D1A6070470428F2
:1003B00008D14FF0E021096941F004014FF0E0223B
:1003C000116107E04FF0E021096921F004014FF0CD
:1003D000E0221161704700000000FA050CED00E01A
:1003E00000E400E080E100E080FFFF1F10B504465C
:1003F000FA48844208D10121401501F0B3FA0021E6
:10040000601501F0AFFA17E0F548844208D10121E8
:10041000001501F0A7FA0021201501F0A3FA0BE066
:10042000F048844208D10121C80301F09BFA002161
:100430004FF4004001F096FA10BD30B5024600209E
:1004400000235068E84C20400D790C6844EA0524EC
:10045000204350609068E54C2040D1E902542C4381
:100460004D7944EA450420439060D06A20F470003E
:100470000C7C641EE4B2234340EA0350D06230BDDA
:1004800000210160017141718160C160012101742D
:10049000704721B1826842F00102826003E0826805
:1004A00022F001028260704721B1826842F48072BA
:1004B000826003E0826822F480728260704710B527
:1004C0000023CBB21AB144681C43446002E0446884
:1004D0009C43446010BD816841F008018160704711
:1004E000014600208A6802F008020AB1012000E0FB
:1004F00000207047816841F0040181607047014627
:1005000000208A6802F004020AB1012000E0002005
:10051000704721B1826842F4A002826003E08268E1
:1005200022F4A00282607047014600208A6802F42B
:1005300080020AB1012000E00020704710B50A4691
:1005400000210023416821F46041531E41EA4331F8
:10055000416010BD21B1426842F40062426003E094
:10056000426822F4006242607047F0B504460D46CE
:1005700000200021092D11DDE068A5F10A0606EB37
:100580004607072606FA07F18843A5F10A0606EB97
:10059000460603FA06F10843E0600CE0206905EB2B
:1005A0004507072606FA07F1884305EB450603FAD7
:1005B00006F108432061072A0FDA606B561E06EB2E
:1005C00086071F2606FA07F18843561E06EB8606A5
:1005D00005FA06F10843606322E00D2A0FDA206B6A
:1005E000D61F06EB86071F2606FA07F18843D61F9B
:1005F00006EB860605FA06F10843206310E0E06A80
:10060000A2F10D0606EB86071F2606FA07F18843BE
:10061000A2F10D0606EB860605FA06F10843E06234
:10062000F0BD21B1826842F48012826003E08268EA
:1006300022F48012826070470146C86C80B2704715
:1006400066484C300068704721B1426842F48062CD
:10065000426003E0426822F480624260704721B148
:10066000426842F48052426003E0426822F48052C1
:10067000426070470A460021816821F4E04111433D
:100680008160704721B1826842F40042826003E0D9
:10069000826822F400428260704721B1826842F48D
:1006A0000212826003E0826822F4021282607047C4
:1006B000014600208A6802F400120AB1012000E01D
:1006C00000207047F0B504461546002000220026A1
:1006D000092911DDE068A1F10A0707EB470C07279C
:1006E00007FA0CF29043A1F10A0707EB470703FA58
:1006F00007F21043E0600CE0206901EB410C072792
:1007000007FA0CF2904301EB410703FA07F210439A
:100710002061A06BC0F30156EF1C06F1010CA7EBA2
:100720000C0707EB870C1F2707FA0CF29043EF1C0E
:1007300006F1010CA7EB0C0707EB870701FA07F29C
:100740001043A063F0BD10B50A4600210023816B61
:1007500021F44011531E41EA0351816310BD08B5D5
:10076000002300930090009B0B440093009B1A60B1
:1007700008BD08B5024600200090009201F1280053
:10078000009B184400900098006880B208BD0A469B
:1007900000214168164B1940114341607047416286
:1007A000826270470A460021416821F01F0111430F
:1007B0004160704740B109490831096841F40001BE
:1007C000064A0832116007E004490831096821F43B
:1007D0000001024A08321160704700000024014005
:1007E00000280140003C0140FFFEF0FFFDF7F1FF53
:1007F000FFFD3FFF0246002013680B400BB10120B4
:1008000000E000207047CA430260704770B502469E
:100810000020002300240B125568CEB205EA06041E
:1008200015681D4015B10CB1012000E0002070BD1D
:1008300000220A12D34303607047000010B5012064
:1008400001F0AAF8002001F0A7F810BD2A490860BD
:1008500070472949091F086070472749843108609B
:10086000704701460020254A10884FF67F4210400D
:100870000843224A10807047014600201F4A108812
:100880004FF68072104008431C4A1080704708B52C
:1008900000220092194A2C3A0092009A02440092D7
:1008A000009A116008BD08B5014600200090134869
:1008B0002C3800900098084400900098008808BDEB
:1008C0000D489C300068C0B270470C480830008862
:1008D00040F0010009490831088070470648A030FF
:1008E0000068C0B2704705480830008840F0020038
:1008F000024908310880704704860D422C6C004084
:1009000001684FF6FE7211400160002101604160F4
:100910008160C1608D49884208D18C490839496895
:1009200041F00F01894A083A51608AE08749143141
:10093000884208D185490839496841F0F001834A65
:10094000083A51607DE081492831884208D17F49C9
:100950000839496841F470617C4A083A516070E096
:100960007A493C31884208D178490839496841F4CC
:100970007041764A083A516063E0744950318842C8
:1009800008D172490839496841F470216F4A083A20
:10099000516056E06D496431884208D16B4908398D
:1009A000496841F47001694A083A516049E0674971
:1009B0007831884208D165490839496841F0706149
:1009C000624A083A51603CE06149884206D1011F01
:1009D000096841F00F01021F116032E05C491431D7
:1009E000884208D15A49091F096841F0F001584A64
:1009F000121F116025E056492831884208D1544918
:100A0000091F096841F47061514A121F116018E012
:100A10004F493C31884208D14D49091F096841F4CA
:100A200070414B4A121F11600BE049495031884216
:100A300007D14749091F096841F47021444A121F30
:100A40001160704710B50022026847F6F0739A43B0
:100A50000C6A8B6823430C6923434C6923438C69DC
:100A60002343CC6923434C6A23438C6A23431A43B0
:100A70000260CB6843600B6883604B68C36010BD45
:100A80000021016041608160C1600161416181615B
:100A9000C161016241628162704721B1026842F026
:100AA0000102026004E002684FF6FE731A40026021
:100AB00070471AB103680B43036002E003688B437D
:100AC00003607047416070470146486880B27047D4
:100AD00001460020002201F080531BB11C4B083B53
:100AE0001A6802E0194B083B1A6802EA01030BB1CD
:100AF000012000E00020704700F0805119B1144936
:100B0000091F086002E01149083948607047014632
:100B10000020002201F080531BB10D4B083B1A68E6
:100B200002E00A4B083B1A6802EA01030BB10120FC
:100B300000E00020704700F0805119B10449091FFE
:100B4000086002E001490839486070470800024027
:100B500008040240002044490860091D0860091D7E
:100B60000860091D086041483F491431086070471A
:100B700000213D498279002A3AD00A46126803686A
:100B80009A430B461A600A1D126803689A430B1DAC
:100B90001A60027911440A6803681A430A60324AEB
:100BA0000832126803689A432F4B08331A601A1DE3
:100BB000126803689A432C4B0C331A604279102A4E
:100BC0000ED11A1F126803681A43274B08331A60A4
:100BD0001A1D126803681A43234B0C331A600DE088
:100BE0002149427911440A6803681A430A6005E002
:100BF000027911440A6803689A430A607047002129
:100C0000016001710C214171002181717047164909
:100C1000103109680143144A1032116070470146CF
:100C20000020114A143212680A400AB1012000E083
:100C3000002070470C4914310860704701460020BD
:100C40000022094B1B6803EA0102074B14331B689F
:100C50000B4013B10AB1012000E0002070470249A7
:100C6000143108607047000000040140FFFF0F00CE
:100C700001460020FE4A106800F03800084310606A
:100C80007047FB49096821F00801F94A11601146D3
:100C90000968014311607047F549096821F01001A6
:100CA000F34A116011460968014311607047F14829
:100CB000EF494860F04848607047EE48EC494860AA
:100CC000ED4848607047EA48006940F08000E84914
:100CD00008617047E648006940F08000E449086117
:100CE00070470420E249C96801F0010109B10120FF
:100CF0000EE0DF49C96801F0040109B1022007E0F4
:100D0000DB49C96801F0100109B1032000E00420AB
:100D1000704700B502460423FFF7E3FF034603E0F4
:100D2000FFF7DFFF0346521E012B01D1002AF7D146
:100D300002B90523184600BD30B5044604254FF41A
:100D40003020FFF7E6FF0546042D17D1C84800699B
:100D500040F00200C649086108464461006940F05D
:100D6000400008614FF43020FFF7D3FF0546C0482C
:100D7000006941F6FD710840BD490861284630BD53
:100D800010B504244FF43020FFF7C3FF0446042CB1
:100D900016D1B748006940F00400B549086108461B
:100DA000006940F0400008614FF43020FFF7B1FFC8
:100DB0000446AF48006941F6FB710840AC49086140
:100DC000204610BD00B502460423FFF78AFF034604
:100DD00003E0FFF786FF0346521E012B01D1002AD4
:100DE000F7D102B90523184600BD10B504244FF40D
:100DF0003020FFF7E7FF0446042C16D19C48006919
:100E000040F004009A4908610846006940F040003B
:100E100008614FF43020FFF7D5FF0446944800697D
:100E200041F6FB71084092490861204610BD002040
:100E30008F49C96901F0020109B1012000E00020D9
:100E4000704730B5A5250424FFF7F1FF00B1002558
:100E50004FF43020FFF75DFF0446042C3AD185485B
:100E600083498860844888600846006940F0200013
:100E700008610846006940F0400008614FF43020E6
:100E8000FFF747FF0446042C1BD17948006941F65F
:100E9000DF710840764908610846006940F010009B
:100EA000086176480580E002FFF733FF0446052C11
:100EB00010D06F48006941F6EF7108406C49086135
:100EC00008E0052C06D06A48006941F6EF71084039
:100ED00067490861204630BD78B506460C460425B2
:100EE00000200090E802FFF714FF0546042D24D1EE
:100EF0005F48006940F001005D4908613480E80204
:100F0000FFF707FF0546042D10D1B01C0090200C00
:100F100000990880E802FFF7FCFE05465448006986
:100F200041F6FE7108405249086106E050480069E8
:100F300041F6FE7108404E490861284678BD70B5FB
:100F400004460D460426F002FFF7E3FE0646042E93
:100F500011D14748006940F00100454908612580EA
:100F6000F002FFF7D6FE06464148006941F6FE71E1
:100F700008403F490861304670BD70B505460E46D1
:100F80000424E002FFF7C5FE0446042C17D13948BB
:100F900037498860384888600846006940F010008A
:100FA00008612E80E002FFF7B4FE0446052C06D04F
:100FB0002F48006941F6EF7108402D49086120462D
:100FC00070BD2DE9F04304464FF6FF763746B04634
:100FD000B1460425E443E6B2C4F30727C4F3074847
:100FE0004FEA1469E802FFF794FE0546042D49D143
:100FF00020481F498860204888600846006940F002
:1010000010000861FF2E06D01C4808300680E80258
:10101000FFF77FFE0546042D08D1FF2F06D01748A5
:101020000A300780E802FFF774FE0546042D0AD156
:10103000B8F1FF0F07D011480C30A0F80080E8028B
:10104000FFF767FE0546042D0AD1B9F1FF0F07D05F
:101050000A480E30A0F80090E802FFF75AFE054655
:10106000052D0FD00248006941F6EF71084007E0F6
:101070000020024023016745AB89EFCD00F8FF1F38
:10108000664908612846BDE8F08330B5054604246A
:101090004FF43020FFF73DFE0446042C41D1604858
:1010A0005E4988605F4888600846006940F020001B
:1010B00008610846006940F0400008614FF43020A4
:1010C000FFF727FE0446042C22D15448006941F65C
:1010D000DF710840514908610846006940F010007E
:1010E00008611DB100205049088002E0A5204E494A
:1010F00008804FF43020FFF70CFE0446052C10D07A
:101100004648006941F6EF7108404449086108E02B
:10111000052C06D04148006941F6DF7108403F497F
:101120000861204630BDF0B505460E46174604243A
:101130003B483A4988603B488860E002FFF7E9FD98
:101140000446042C19D13548006940F01000334999
:10115000086147F0F800304328433349891C088070
:10116000E002FFF7D6FD0446052C06D02B480069A7
:1011700041F6EF710840294908612046F0BD274833
:10118000C069800870472548006A704700202349DD
:10119000096801F0200109B1012000E0002070473A
:1011A00029B11E4A126902431C4B1A6104E01B4A12
:1011B00012698243194B1A617047014600200129C8
:1011C00008D1164AD26902F001020AB1012008E0F2
:1011D000002006E0114AD2680A400AB1012000E06E
:1011E000002070470D49C860704704200B49C9684A
:1011F00001F0010109B101200EE00849C96801F0C0
:10120000040109B1022007E00449C96801F0100196
:1012100009B1032000E004207047000000200240D4
:1012200023016745AB89EFCD00F8FF1F10B50446D9
:10123000CC48844208D10121042000F093FB002116
:10124000042000F08FFB46E0C748844208D101210A
:10125000082000F087FB0021082000F083FB3AE023
:10126000C248844208D10121102000F07BFB0021FC
:10127000102000F077FB2EE0BD48844208D1012108
:10128000202000F06FFB0021202000F06BFB22E00B
:10129000B848844208D10121402000F063FB0021BE
:1012A000402000F05FFB16E0B348844208D10121E2
:1012B000802000F057FB0021802000F053FB0AE063
:1012C000AE48844207D10121801500F04BFB00217C
:1012D000A01500F047FB10BD10B50121084600F035
:1012E00041FB0021012000F03DFB10BD2DE9F04144
:1012F000024600250026002000230024002791F844
:1013000003C00CF00F0591F803C00CF0100CBCF1F9
:10131000000F03D091F802C04CEA050591F800C017
:10132000BCF1000F31D0146800202BE04FF0010C0D
:101330000CFA00F3B1F800C00CEA03069E4220D17B
:1013400083004FF00F0C0CFA03F7BC4305FA03FCC3
:101350004CEA040491F803C0BCF1280F06D14FF009
:10136000010C0CFA00FCC2F814C00AE091F803C0AA
:10137000BCF1480F05D14FF0010C0CFA00FCC2F88B
:1013800010C0401C0828D1D31460B1F800C0BCF1D3
:10139000FF0F34DD546800202EE000F1080C4FF000
:1013A000010808FA0CF3B1F800C00CEA03069E42EB
:1013B00021D183004FF00F0C0CFA03F7BC4305FA60
:1013C00003FC4CEA040491F803C0BCF1280F05D1DA
:1013D00000F1080C08FA0CF8C2F8148091F803C068
:1013E000BCF1480F07D100F1080C4FF0010808FAD2
:1013F0000CF8C2F81080401C0828CED35460BDE819
:10140000F0814FF6FF710180022181700421C170CB
:1014100070470246002093680B400BB1012000E0AA
:10142000002070470146886880B27047024600205D
:10143000D3680B400BB1012000E00020704701464B
:10144000C86880B2704701617047416170470AB156
:10145000016100E041617047C16070474FF4803224
:101460000A438261816182618269826970470246B2
:101470000020434B18684FF68073184040EA021072
:1014800008433F4B186070473E49C8617047F0B54C
:101490000A46002300240021002500F00046B6F192
:1014A000004F02D1364EF16901E0354E7168C0F34C
:1014B000034583B200F44016B6F5401F08D121F071
:1014C00070612F4E766826F070662D4F7E6012E0B8
:1014D00000F48016B6F5801F06D1032606FA05F43F
:1014E000A14341F0706106E0460D360103FA06F6AD
:1014F000B14341F0706122B1460D360103FA06F6A0
:10150000314300F00046B6F1004F02D11C4EF161AC
:1015100001E01B4E7160F0BD30B500228B071C0F3F
:101520000F2303FA04F2164B08338C1053F82430BF
:101530009343134C08348D1044F8253023468C1007
:1015400053F824308C07240F00FA04F423430C4C86
:1015500008348D1044F8253030BD0A49DC3108606C
:101560007047000000080140000C014000100140DD
:101570000014014000180140001C014000200140FF
:10158000000001400000204210B50121080700F0D2
:10159000F6F900214FF0805000F0F1F910BD2A4912
:1015A0000862704728490861704701460020274AB1
:1015B000106820F0E0000843106070472249A03115
:1015C0000860704710B502460020204B186820F0D4
:1015D0000300104318601E4B1B6843F004031C4CAF
:1015E0002360012901D130BF00E020BF184B1B68E8
:1015F00023F00403164C236010BD1448006840F02B
:101600000400124908600846006840F002000860C3
:101610000F48006840F004000D49086000BF00BF9B
:1016200030BF704701460020084A52680A400AB19C
:10163000012000E0002070470449096841EA800168
:10164000024A11607047000000000E420070004026
:1016500010ED00E0DF48006840F00100DD4908605F
:1016600008464068DC490840DA4948600846006896
:10167000DA490840D74908600846006820F480200D
:1016800008600846406820F4FE0048604FF41F00E0
:1016900088607047CF49096821F48031CD4A1160D4
:1016A0001146096821F480211160B0F5803F03D014
:1016B000B0F5802F0ED106E0C649096841F48031AB
:1016C000C44A116007E0C349096841F4A021C14A36
:1016D000116000E000BF00BF704710B50146002256
:1016E000002300204A11012A02D1BA4C236806E0E7
:1016F000022A02D1B74C236A01E0B64C636A01F0BA
:101700001F02012494401C400CB1012000E0002085
:1017100010BD38B5002000900024002500BF312006
:10172000FFF7DBFF05460098401C00900098B0F5DD
:10173000A06F01D0002DF2D03120FFF7CEFF08B10D
:10174000012400E00024204638BD01460020A14AC3
:10175000106820F0F80040EAC10010607047A0490E
:1017600008607047024600209A4B586820F47C10AD
:1017700042EA01031843974B58607047984908663E
:10178000704701460020934A506820F00300084348
:10179000506070478F48406800F00C007047014669
:1017A00000208C4A506820F0F000084350607047D9
:1017B00001460020874A506820F4E06008435060EA
:1017C000704701460020834A506820F4605040EA88
:1017D000C1005060704729B17E4A527A02437D4B66
:1017E0005A7204E07B4A527A82437A4B5A727047AB
:1017F0007B49D8310860704701460020754A50681F
:1018000020F440400843506070470021714A203264
:101810001170704A82F82010012802D004280AD1E1
:1018200004E001216B4A2032117005E00521694A6C
:101830002032117000E000BF00BF704769490860A6
:1018400070476449096A0143624A116270476549F9
:1018500044390860704730B500210022002400237D
:101860005C4D6D6805F00C0121B1042905D00829F3
:1018700023D105E05C4D056022E05B4D05601FE073
:10188000544D6D6805F47012524D6D6805F4803446
:10189000022505EB92421CB9544D554305600BE0FF
:1018A0004C4D6D6805F400351DB1504D5543056034
:1018B00002E04D4D5543056002E04B4D056000BF11
:1018C00000BF444D6D6805F0F0010909484D6B5C9F
:1018D0000568DD4045603F4D6D6805F4E061090A2B
:1018E000434D6B5C4568DD4085603A4D6D6805F49D
:1018F0006051C90A3E4D6B5C4568DD40C560354DA1
:101900006D6805F44041890B3A4D6B5CC568B5FBC9
:10191000F3F5056130BD29B12E4A526902432D4BC2
:101920005A6104E02B4A526982432A4B5A6170473C
:1019300029B1284A92690243264B9A6104E0254A5C
:1019400092698243234B9A61704729B1214AD26937
:101950000243204BDA6104E01E4AD26982431D4BE8
:10196000DA61704729B11B4AD2680243194BDA6029
:1019700004E0184AD2688243164BDA60704729B1F6
:10198000144A12690243134B1A6104E0114A1269A6
:101990008243104B1A617047124940390860704702
:1019A0000F49C86470470B49C87170470948406ABD
:1019B00040F0807007494862704701460020054AA0
:1019C00092680A400AB1012000E0002070470149F6
:1019D00088727047001002400000FFF8FFFFF6FE1B
:1019E000000042428004424200127A0000093D0099
:1019F000140000202400002029B1564A1288024316
:101A0000544B1A8004E0534A12888243514B1A8087
:101A100070475048001D008840F010004D49091DD6
:101A2000088070474B48001D00884FF6EF71084052
:101A30004849091D088070470021002200234548BD
:101A400018300188001D0388001F0288914204D0CD
:101A5000001D008840EA0240704743EA0140FBE76E
:101A600000B50246FFF7D5FF100C3A49183108803F
:101A7000091D0A80FFF7D6FF00BD00B50246FFF73B
:101A8000C8FFC2F30340334908310880091D0A80AA
:101A9000FFF7C8FF00BD00B50246FFF7BAFF100C04
:101AA0002C4920310880091D0A80FFF7BBFF00BDCB
:101AB00000202849103109880907080B25491431ED
:101AC00009880843704700BF2248001D008800F0C5
:101AD00020000028F8D070471E48001D00884FF6EF
:101AE000F77108401B49091D088000BF1948001DF7
:101AF000008800F008000028F8D070470146002058
:101B0000144A121D12880A400AB1012000E0002088
:101B100070471049091D098881430E4A121D118022
:101B20007047014600200B4A121D12880A40D0B2AD
:101B3000084A12880A4012B108B1012000E00020D2
:101B400070470449091D09888143024A121D11800A
:101B5000704700000028004010B50446FE4884424B
:101B600008D10121C014FFF7FDFE0021E014FFF7AA
:101B7000F9FEC4E0B4F1804F08D101210846FFF717
:101B8000FEFE00210120FFF7FAFEB8E0F348844290
:101B900008D101210220FFF7F2FE00210220FFF709
:101BA000EEFEACE0EE48844208D101210420FFF7AC
:101BB000E6FE00210420FFF7E2FEA0E0E9488442AF
:101BC00008D101210820FFF7DAFE00210820FFF7E5
:101BD000D6FE94E0E448844208D101211020FFF7AA
:101BE000CEFE00211020FFF7CAFE88E0DF488442C5
:101BF00008D101212020FFF7C2FE00212020FFF79D
:101C0000BEFE7CE0DA48844208D101214014FFF78F
:101C1000A9FE00216014FFF7A5FE70E0D5488442BC
:101C200009D10121C804FFF79DFE00214FF40020D7
:101C3000FFF798FE63E0D048844209D101210805EE
:101C4000FFF790FE00214FF48010FFF78BFE56E067
:101C5000CA48844209D101214805FFF783FE0021CB
:101C60004FF40010FFF77EFE49E0C548844208D1DA
:101C700001214020FFF783FE00214020FFF77FFE77
:101C80003DE0C048844208D101218020FFF777FE63
:101C900000218020FFF773FE31E0BB48844208D169
:101CA00001218015FFF76BFE0021A015FFF767FEED
:101CB00025E0B648844209D101210804FFF752FE0D
:101CC00000214FF48030FFF74DFE18E0B048844209
:101CD00009D101214804FFF745FE00214FF40030EF
:101CE000FFF740FE0BE0AB48844208D10121880495
:101CF000FFF738FE00214FF48020FFF733FE10BDC0
:101D000000220288944B98420ED0994B98420BD0F7
:101D1000B0F1804F08D0914B984205D0904B98423B
:101D200002D0904B984204D14FF68F731A404B88E3
:101D30001A438D4B984207D08C4B984204D04FF6F3
:101D4000FF431A40CB881A4302808B8883850B8817
:101D50000385814B98420BD0854B984208D08B4B22
:101D6000984205D08A4B984202D08A4B984201D1C2
:101D70000B7A038601238382704770B5002400220A
:101D80000023058C4FF6FE7635400584028C83884F
:101D9000048B4FF68F752C40B51E2C400D882C43BC
:101DA000751E2A400D892A434D882A436A4DA84250
:101DB0000BD06F4DA84208D0744DA84205D0744D89
:101DC000A84202D0734DA84213D14FF6F7752A40AE
:101DD0004D892A434FF6FB752A408D882A434FF6DA
:101DE000FF652B404FF6FF552B408D892B43CD8946
:101DF0002B4383800483CD888586028470BD70B5B3
:101E0000002400220023058C4FF6EF763540058430
:101E1000028C8388048B48F6FF752C404FF6FF45F3
:101E20002C400D884FF6FF7606EA05252C434FF629
:101E3000DF752A400D8906EA05152A434D8806EA12
:101E400005152A43444DA84202D0494DA8421DD150
:101E50004FF67F752A404D894FF6FF7606EA051545
:101E60002A434FF6BF752A408D8806EA05152A4396
:101E70004FF6FF352B404FF2FF752B408D8906EA58
:101E800085052B43CD8906EA85052B438380048392
:101E9000CD880587028470BD70B500240022002320
:101EA000058C4FF6FF6635400584028C8388848B51
:101EB0004FF68F752C404FF6FC752C400D882C4347
:101EC0004FF6FF552A400D894FF6FF7606EA0525A5
:101ED0002A434D8806EA05252A431F4DA84202D011
:101EE000234DA8421DD14FF2FF752A404D894FF670
:101EF000FF7606EA05252A434FF6FF352A408D88EE
:101F000006EA05252A434EF6FF752B404DF6FF7570
:101F10002B408D8906EA05152B43CD8906EA051568
:101F20002B4383808483CD888587028470BD70B500
:101F3000002200230024058C4EF6FF7635400584F0
:101F4000038C8488828B48F6FF752A404FF6FF4544
:101F50002A400D8820E00000002C014000040040D1
:101F600000080040000C0040001000400014004039
:101F700000340140004C0140005001400054014039
:101F800000180040001C00400020004000400140BC
:101F900000440140004801404FF6FF7606EA05255F
:101FA0002A434DF6FF752B400D8906EA05352B4374
:101FB0004D8806EA05352B43FA4DA84202D0FA4D6A
:101FC000A84208D14BF6FF752C408D894FF6FF765D
:101FD00006EA85152C4384808283CD88A0F8405082
:101FE000038470BD828B4FF2FF331A408283828B51
:101FF0004FF6FF7303EA01231A4382837047F0B55B
:102000000C461546002200210026078C4EF6FF7C68
:1020100007EA0C070784828B018C4FF6FF7707EAEB
:10202000043640F6FF473A404FF6FF7707EA0527A8
:102030003A434FF6FF7707EA03373A43D94FB8429E
:102040000ED0D94FB8420BD0B0F1804F08D0D74F47
:10205000B84205D0D64FB84202D0D64FB84206D1CA
:102060004DF6FF77394046F48057394305E047F68F
:10207000FF57394044F48057394382830184F0BDCF
:10208000828B4FF6F3731A408283828B0A438283DA
:102090007047F0B50C461546002200210026078C3B
:1020A0004FF6FF6C07EA0C070784828B018C4FF612
:1020B000FF7707EA04264FF60C773A404FF6FF7792
:1020C00007EA03172F433A43B64FB8420ED0B64F34
:1020D000B8420BD0B0F1804F08D0B44FB84205D011
:1020E000B34FB84202D0B34FB84206D14FF6FF57B4
:1020F000394046F48077394305E04FF2FF573940C5
:1021000044F48077394382830184F0BD028B4FF21F
:10211000FF331A400283028B4FF6FF7303EA012359
:102120001A4302837047F0B50C4615460022002181
:102130000026078C4FF6EF7C07EA0C070784028B1A
:10214000018C4FF6FF7707EA041640F6FF473A4046
:102150004FF6FF7707EA03373A434FF6FF7707EA70
:1021600005273A438F4FB8420ED08F4FB8420BD05D
:10217000B0F1804F08D08D4FB84205D08C4FB84297
:1021800002D08C4FB84206D14FF6DF77394046F087
:102190001007394305E04FF65F77394044F01007E8
:1021A000394302830184F0BD028B4FF6F3731A406A
:1021B0000283028B0A4302837047F0B50C46154632
:1021C00000220021068C4FF6FE773E400684028BEB
:1021D000018C4FF60C7632407E1C06EA03162E4325
:1021E0003243704EB0420ED06F4EB0420BD0B0F1C1
:1021F000804F08D06D4EB04205D06D4EB04202D037
:102200006C4EB04206D14FF6FD76314044F00106E7
:10221000314305E04FF6F576314044F00106314395
:1022200002830184F0BD70B505460C465D488542C9
:102230000ED05D4885420BD0B5F1804F08D05B4889
:10224000854205D05A48854202D05A48854200D17D
:1022500000E000BF208850B92389A2886188284601
:10226000FFF7ABFFE1882846FFF79EFF25E02088B7
:1022700004280AD12389A28861882846FFF753FFE2
:10228000E1882846FFF742FF17E0208808280AD196
:102290002389A28861882846FFF7FBFEE18828464B
:1022A000FFF7EEFE09E02389A28861882846FFF740
:1022B000A6FEE1882846FFF795FE70BD2DE9F041A6
:1022C00005460C4600260127608808B9022600E072
:1022D0000026A088012801D1022700E001272088DC
:1022E000A0B92389A28861882846FFF766FFE188A4
:1022F0002846FFF759FF23893A4631462846FFF71B
:1023000012FFE1882846FFF701FF13E02389A28826
:1023100061882846FFF707FFE1882846FFF7F6FEA9
:1023200023893A4631462846FFF747FFE188284689
:10233000FFF73AFFBDE8F0810A884B881A438B8883
:102340001A43CB881A430B891A434B891A438B894A
:102350001A43A0F8442070474FF6FF718180002196
:102360000180C1804180017270470021018041805D
:102370008180C180018141818181C18170470021BB
:1023800001804180012181800021C180018170474D
:102390000021018041808180C18001814181818152
:1023A00070470000002C0140003401400004004050
:1023B00000080040000C004021B1028842F00102F8
:1023C000028004E002884FF6FE731A4002807047D4
:1023D00031B1B0F8442042F40042A0F8442005E0B6
:1023E000B0F84420C2F30E02A0F8442070471AB19E
:1023F00083890B43838102E083898B438381704708
:102400008182704741EA0203A0F8483070471AB150
:1024100083890B43838102E083898B4383817047E7
:1024200001894FF6F8721140018170470A46002178
:1024300001894FF68F73194011430181704730B500
:1024400004460D4629462046FFF7F0FF208940F05C
:102450000700208130BD2DE9F04104460D461646A7
:102460001F46602D06D13B46012231462046FFF72C
:102470005AFE05E03B46012231462046FFF79DFE0D
:1024800029462046FFF7D2FF208940F0070020812F
:10249000BDE8F08130B50C4600210189C9B24FF684
:1024A000FF7505EA0325154325432943018130BD06
:1024B0002DE9F04105460E4617469846002443464E
:1024C0003A4631462846FFF7E5FF2C894FF6F8706B
:1024D000044044F007044FF68F70044044F0700449
:1024E0002C81BDE8F081F0B504460D4616461F4626
:1024F0003B46324629462046FFF7CCFF208940F470
:1025000080402081F0BD0185828270470A4600210B
:1025100001884FF68F731940114301807047F0B561
:102520000C4615461E460021002200230189028B1D
:10253000038C4FF6F877394021434FF6FC473A4079
:1025400040F201173A434FF6DD773B404FF6FF77F5
:1025500007EA06172F433B43018102830384F0BD42
:102560000A460021018B4FF68F73194011430183F6
:1025700070470A460021018B48F6FF7319404FF659
:10258000FF7303EA02231943018370470A460021BF
:10259000818B4FF68F7319401143818370470A4630
:1025A0000021818B48F6FF7319404FF6FF7303EA51
:1025B000022319438183704721B1028842F08002CF
:1025C000028004E002884FF67F731A400280704751
:1025D00021B1828842F00402828004E082884FF6B2
:1025E000FB731A408280704721B1828842F0080252
:1025F000828004E082884FF6F7731A408280704729
:1026000021B1828842F00102828004E082884FF684
:10261000FE731A40828070470A460021018B4FF6F4
:10262000F77319401143018370470A460021018B5B
:102630004FF2FF7319404FF6FF7303EA0223194369
:10264000018370470A460021818B4FF6F7731940CA
:102650001143818370470A460021818B4FF2FF733B
:1026600019404FF6FF7303EA022319438183704731
:102670000A460021018B4FF6FB7319401143018379
:1026800070470A460021018B4FF6FF3319404FF681
:10269000FF7303EA02231943018370470A460021AE
:1026A000818B4FF6FB7319401143818370470A46B3
:1026B0000021818B4FF6FF3319404FF6FF7303EA79
:1026C00002231943818370470A460021018B4FF68C
:1026D0007F7319401143018370470A460021018B23
:1026E000C1F30E014FF6FF7303EA0223194301837E
:1026F00070470A460021818B4FF67F7319401143C2
:10270000818370470A460021818BC1F30E014FF689
:10271000FF7303EA02231943818370470A460021AD
:10272000018C4FF6FD7319401143018470470A462E
:102730000021018C4FF6F773194011430184704753
:102740000A460021018C4FF6DF7319404FF6FF73E4
:1027500003EA02131943018470470A460021018CE1
:102760004FF67F7319404FF6FF7303EA02131943C4
:10277000018470470A460021018C4FF6FF5319402F
:102780004FF6FF7303EA02231943018470470A4698
:102790000021018C4FF2FF7319404FF6FF7303EADB
:1027A00002231943018470470A460021018C4DF62B
:1027B000FF7319404FF6FF7303EA02331943018494
:1027C000704730B5002301248C40A3B2048C9C4395
:1027D0000484048C02FA01F5ADB22C43048430BDAC
:1027E00030B5002304248C40A3B2048C9C430484A1
:1027F000048C02FA01F5ADB22C43048430BD70B5EF
:102800000346002000241846183001258D40ACB244
:102810001D8CA5431D8409B1082909D100EB610075
:10282000056825F0700505600568154305600EE034
:102830000D1FC5F34E052844056825F4E0450560E5
:1028400005684FF6FF7606EA02263543056070BD3F
:1028500021B1028842F00202028004E002884FF6B1
:10286000FD731A400280704721B1028842F00402D1
:10287000028004E002884FF6FB731A400280704722
:1028800021B1828842F08002828004E082884FF683
:102890007F731A408280704702884FF6F7731A40A0
:1028A000028002880A430280704782884FF68F7345
:1028B0001A40828082880A438280704702894FF6DC
:1028C000F8731A40028102890A4302817047028923
:1028D0004FF67F731A40028102890A4302817047D2
:1028E0008184704781857047818670470187704772
:1028F00081877047A0F84010704702884FF6FF4369
:102900001A40028002880A43028070470146888E7E
:1029100070470146088F70470146888F704701460F
:10292000B1F8400070470146888C70470146088D19
:10293000704702460020138A0B400BB1012000E0D3
:1029400000207047CA430282704730B5024600201B
:1029500000230024158A05EA0103958905EA01048C
:1029600013B10CB1012000E0002030BDCA43028247
:102970007047000010B50121C802FFF700F80021E0
:102980004FF40060FEF7FBFF10BD0021194A1268EA
:1029900022F4C0710143174A1160704708B5002145
:1029A00000911449096821F07F01009100F07F0136
:1029B000009A114300910F4A0099116008BD01204F
:1029C0000D490860704700F07F010A4A121F11602C
:1029D000704740F08001074A121F11607047054898
:1029E000001D0068C0B2704700200249091D086040
:1029F00070470000042C0040A48005426FF00400E2
:102A0000FDF7D5FC4FF4A060FDF782FC00F008F85C
:102A100000B102E000F0B0FF00BF00BFFEE7000021
:102A200010B5002402F040FD01F04AFD02F0E5FB84
:102A3000FA4908700846007800F0020050B90846CC
:102A4000007800F0010028B102F0AAFC10B90420BF
:102A500002F087FD0A2004F039FFF14908600846BA
:102A6000006810B94FF0FF3419E001F077FE01F073
:102A7000D0FF02F021F902F092FA01F0DDFA01F044
:102A800086FB01F0FFFF044604B108E003F088FE76
:102A900002F053FE0120E3490870204610BD204695
:102AA000FCE710B503F048FF0021084602F05BF890
:102AB0000021052002F057F80021032002F053F80E
:102AC0000021042002F04FF80120D649087010BD03
:102AD00010B50020D3490870D3480078401CD24973
:102AE0000870AFF213012A2004F048FFCE480078A6
:102AF000012816D1C103CD48FEF78BFC28B94FF44D
:102B00008071CB48FEF785FC28B14FF40071C848AE
:102B1000FEF77FFC00B1B5E05A21002002F023F857
:102B20006DE0C1480078022813D1C248808BC249A9
:102B30000880084600884000032190FBF1F0BD4961
:102B4000898A884200DA8BE03C21032002F00BF8EE
:102B500055E0B5480078032812D1B648808BB649B5
:102B60000880084600880F2190FBF1F0B149C9891F
:102B7000884200DA6FE03C21042001F0F4FF3EE0DF
:102B8000A9480078042812D1AA48808BAA49088055
:102B9000084600880F2190FBF1F0A649098A884277
:102BA00000DA53E05021052001F0DDFF27E0A148C5
:102BB000808BA149088008889E49498A00EBD07221
:102BC000B1EB620F00DD3CE09C48007820B10228A8
:102BD0000CD003280FD104E099492A2004F0CEFE3E
:102BE00009E098492A2004F0C9FE04E096492A2009
:102BF00004F0C4FE00BF00BF00208B490870002114
:102C00004FF08040FFF76CFE002201218807FFF79C
:102C1000EEFB8E48844A127830F8220081B24FF0E1
:102C20008040FFF75FFE01218807FFF78BFE01223E
:102C300011469007FFF7DBFB01218807FFF7BCFB7C
:102C400010BD0021052001F08EFF00BF00210420EF
:102C500001F089FF00BF0021032001F084FF00BFC5
:102C60000021084601F07FFF00214FF08040FFF770
:102C7000A3FB00214FF08040FFF732FE2A2004F032
:102C800089FE00BF0020684908704FF416710220C9
:102C900001F0E1FA0821012002F094FC01206149D1
:102CA000087000BFCCE710B500205F490870002114
:102CB0004FF08040FFF780FB00214FF08040FFF78E
:102CC0000FFE2A2004F066FE0021084601F04BFFAB
:102CD0000021052001F047FF0021032001F043FF00
:102CE0000021042001F03FFF01204E49087010BD73
:102CF00010B54C480078022812D04A48007810B924
:102D0000FFF7D1FF12E047480078032802D104F012
:102D10008BFC0BE0002049490870FFF7D9FE05E065
:102D200046480078052801D0FFF7BBFE10BD10B55E
:102D300001203C49087041480078052802D1FFF77E
:102D4000D7FF0FE00021084601F00DFF002105200C
:102D500001F009FF0021032001F005FF00210420FC
:102D600001F001FF10BD10B50446052C2BD2DFE8A1
:102D700004F00312212724002A480078022809D1F0
:102D80002E480078012802D104F0E8F802E0002083
:102D900004F0E4F817E00821012002F013FC4FF4DE
:102DA0001671022001F057FA04F062FA08B1FFF739
:102DB00078FE08E004F053FB05E0FFF772FE02E046
:102DC000FFF7B5FF00BF00BF10BD10B504461548A2
:102DD0000078022800D010BD1848007804287DD162
:102DE0006078462802D06078452800D1F3E70020BB
:102DF0001749087035E017481549097800EB41007C
:102E000040786178884227D112481149097810F832
:102E10001100217888421FD129E000002B000020FA
:102E20002C00002028000020320000200014014067
:102E3000001801407E010020A4000020290000208D
:102E4000D1760008957700081F7700087C8000087D
:102E50003300002014010020FE480078401CFD498A
:102E60000870FC480078FC4909788842C3DB00BF41
:102E7000F8480078F849097888427DDAF648007801
:102E8000F4490978401AF549087008460078022884
:102E900073DB0020F24908705AE0F248007800B174
:102EA0005CE0EF480078401CEF49087044E0EF48D0
:102EB000EB49097800EB41004078EC49EA4A127886
:102EC00001EB42014978884231D1E848E449097868
:102ED00000EB41004078E649087000E05BE3E3481E
:102EE000DF49097810F81100E24931F81000DF4994
:102EF000DD4A127811F81210DE4A32F81110084437
:102F000000B2DB494880B1F90210B1F5B47F01D1BC
:102F1000002105E0D649B1F9020000EBD07149105B
:102F200009B2D34A51800120CE4908700AE0CE4848
:102F30000078401CCC490870CB480078C749097814
:102F40008842B4DB00BFC6480078401CC449087002
:102F5000C3480078C149097888429EDB00BFC14858
:102F60000078002877D0C2480078412803D0C048B4
:102F70000078432861D101E0CAE19FE1BE480078B2
:102F800018B1BD480078022858D10020B149087016
:102F900015E0B648AF49097800EB41004078442875
:102FA00007D0B248AB49097800EB4100407842288D
:102FB00000D10AE0A7480078401CA6490870A5483F
:102FC0000078A64909788842E3DB00BFA148007871
:102FD000A2490978884218DB00209E4908700DE05C
:102FE000A2489C49097800EB41004078402800D174
:102FF0000AE098480078401C964908709548007887
:10300000964909788842EBDB00BF924800789349E3
:103010000978884211DA95488E49097800EB410019
:1030200040789349087091488A49097810F811004E
:10303000904931F810008E49488053E100208549BD
:1030400008700EE089488349097800EB4100407818
:10305000402801D10BE04BE07E480078401C7D49C0
:1030600008707C4800787D4909788842EADB00BF17
:103070007848007879490978884220DB0020754932
:10308000087015E079487349097800EB41004078F1
:10309000442807D075486F49097800EB4100407813
:1030A000422800D10AE06B480078401C694908704A
:1030B00068480078694909788842E3DB00BF6548C1
:1030C0000078664909788842B7DA68486149097822
:1030D00000EB410040786649087064485D49097812
:1030E00010F81100634931F8100061494880F9E097
:1030F0006148007818B160480078022864D1002047
:103100005449087015E059485249097800EB4100CC
:103110004078442807D055484E49097800EB4100D3
:103120004078422800D10AE04A480078401C4949CA
:10313000087048480078494909788842E3DB00BFB5
:103140004448007845490978884218DB0020414905
:1031500008700DE045483F49097800EB4100407890
:10316000402800D10AE03B480078401C39490870EB
:1031700038480078394909788842EBDB00BF354888
:10318000007836490978884212DA38483149097896
:1031900000EB410040783649087034482D490978E1
:1031A00010F81100334931F810003149488099E096
:1031B0002E4840782E4908702C4800782D4931F867
:1031C00010002B4948808DE00020224908700DE056
:1031D00026482049097800EB41004078402800D17A
:1031E0000AE01C480078401C1A4908701948007809
:1031F0001A4909788842EBDB00BF16480078174966
:103200000978884220DB00201249087015E0174831
:103210001049097800EB41004078442807D0134852
:103220000C49097800EB41004078422800D10AE0BF
:1032300008480078401C074908700648007807498C
:1032400009788842E3DB00BF024800780349097827
:10325000884213E0330000203700002036000020B1
:103260003400002038000020350000201401002028
:103270003A000020708000083100002012DAFD487A
:10328000FD49097800EB41004078FC490870F94895
:10329000F949097810F81100F94931F81000F74997
:1032A00048801FE0F3484078F4490870F1480078FE
:1032B000F34931F81000F149488013E0F1480078F3
:1032C000401EEC4901EB40004078EC490870ED48A5
:1032D0000078401EE74911F81000E94931F8100064
:1032E000E6494880E548B0F90200B42805DDE34826
:1032F000B0F90200A0F5B47002E0E048B0F90200B5
:1033000000B2DE4948800020DE490870DE490870BE
:10331000DC480078052802DB0020DA490870607874
:10332000D449D84A127801EB420148702078D1493B
:10333000D44A127801F81200D2480078401CD149D2
:103340000870CE480078412803D0CC480078432844
:1033500061D10120CD490870C8480078412803D0C8
:10336000C648007844282AD1C448B0F9020010F1B8
:103370005A0F06DA01230A221946002004F012F936
:10338000F1E0BE48B0F902005A2806DA0123022211
:1033900019460A2004F006F9E5E0B84840885A28A2
:1033A00006D101230A221946082004F0FBF8DAE0CE
:1033B00001230A221946002004F0F4F8D3E0AF48B4
:1033C000B0F902005A2806DD0123002219460A201E
:1033D00004F0E8F8C7E0A948B0F9020010F15A0F6C
:1033E00006DD01230A221946022004F0DBF8BAE0C8
:1033F000A248B0F902005A3030B901230822194618
:103400000A2004F0CFF8AEE00123002219460A207A
:1034100004F0C8F8A7E099480078442803D09748FA
:10342000007842285ED102209849087093480078BD
:10343000412803D091480078442829D18F48B0F919
:10344000020000280CDC8D48B0F9020010F1870F53
:1034500006DB01230A221946002004F0A3F882E0CB
:103460008648B0F9020000280BDD8448B0F902005C
:10347000B42806DA0123002219460A2004F092F843
:1034800071E001230A221946104604F08BF86AE025
:103490007A48B0F9020000280CDC7848B0F9020044
:1034A00010F1870F06DB01230A221946002004F0E1
:1034B00079F858E07148B0F9020000280BDD6F4838
:1034C000B0F90200B42806DA0123002219460A20C6
:1034D00004F068F847E001230A221946104604F078
:1034E00061F840E06548007840283CD103206749F6
:1034F00008706248B0F902002D2806DD01231A4643
:103500000021184604F04EF82DE05C48B0F90200A6
:10351000002806DD012303221946022004F042F8A8
:1035200021E05648B0F9020010F12D0F06DA002311
:1035300001221146104604F035F814E04F48B0F966
:103540000200002806DA012302221946032004F0B3
:1035500029F808E004204D49087001230622194685
:10356000104604F01FF84948007849490978884214
:103570000CD046480078042804D10821012002F02C
:1035800021F803E00821042002F01CF83F480078ED
:103590003F49087036E03F48007868BB3E480078F5
:1035A00050BB6078462802D0607845282AD1207820
:1035B000012802D0207802280FD13848007801284D
:1035C00005D101227821104603F0A9FF1AE000225C
:1035D0007821012003F0A3FF14E02078042802D012
:1035E000207803280ED12D480078012805D101222A
:1035F0007821002003F093FF04E000227821104698
:1036000003F08DFF00BFFFF7E6BB10B5244800783C
:1036100003280AD02248007838B1214800780228CF
:1036200004D11E480078042800D110BD1C48007841
:1036300002280FD03C21052001F095FA322001F03C
:103640006BFE1E21032001F08EFA1E21042001F0E2
:103650008AFA05E00021084601F085FA03F06CF9CA
:1036600003F0C0FF0020094908700949087000BF35
:10367000DBE7000014010020330000203A000020A6
:103680007080000837000020380000203000002043
:1036900031000020F5000020F60000202900002065
:1036A0002800002010B50446FA480078032802D00C
:1036B000F848007800B910BDF6480078022810D00C
:1036C0005A21002001F04FFA5021052001F04BFA59
:1036D0003C21032001F047FA3C21042001F043FA89
:1036E00001E003F029F9204604F07BF800BFE2E78F
:1036F00010B5E8480078032802D0E648007800B901
:1037000010BDE4480078022805D00320E249087083
:10371000FFF7DEF908E0E0480078032800D1EFE782
:1037200003F00AF904F036F800BFE9E710B5D9480C
:103730000078032802D0D748007800B910BDD548DA
:103740000078022805D00220D3490870FFF7C0F99D
:1037500008E0D1480078022800D1EFE703F0ECF848
:1037600003F0DDFF00BFE9E710B504462046B42CA6
:1037700021D010DCAC2834D006DC2A283CD08A28A2
:1037800013D099284FD12FE0B02819D0B22816D0E5
:10379000B32848D112E0B5380A2844D2DFE800F057
:1037A0000835431D431943154311FFF7A1FA51E0B2
:1037B000FFF7BCFF4EE0FFF79BFF4BE04AE049E01C
:1037C00048E00020FFF76EFF44E00220FFF76AFFA9
:1037D00040E00120FFF766FF3CE00320FFF762FFB7
:1037E00038E0FFF712FF35E001F0ECFC40F2DC516D
:1037F000012000F030FD2DE001F080FC20B14FF4FD
:103800001671012000F027FD24E001F0E2FC48B130
:1038100001F0D4FC002001F04AFC4FF416710220A4
:1038200000F019FD16E001F0D4FC90B101F0C6FCE7
:10383000472C0EDB752C0CDCC4F176014FF4E162F1
:1038400001FB02F001F033FC4FF46171012000F044
:1038500002FD00BF00BF10BD10B503208D490870E8
:1038600003F06AF80021084601F07DF900210520E7
:1038700001F079F90021032001F075F900210420FD
:1038800001F071F90020854908708549087010BD64
:1038900010B50446052C4AD2DFE804F0030D1E35AE
:1038A00044007C480078032804D10120794908703D
:1038B000FFF7ABFE3BE077480078022805D1764859
:1038C0000078042801D1FFF7C7FF03207149087071
:1038D0000420714908702AE06E480078022811D14E
:1038E0006D48007804280DD06B480078052809D071
:1038F00069480078012805D00821012001F062FE06
:10390000FFF783FE13E063480078022809D162487C
:103910000078012805D0FFF7C4F80821012001F044
:1039200051FE04E00821022001F04CFE00BF00BF60
:1039300010BD10B50446012C02D0042C19D10AE0A8
:1039400054480078012803D052480078032801D158
:10395000FFF7CEF90EE04F480078012803D120464A
:1039600001F0FFFD04E000BF1E204E49087000BFBB
:1039700000E000BF00BF10BD00244B48007800F0FD
:10398000010058B1484890F9000020F00100464974
:10399000087040F2DC51012000F05DFC42480078E4
:1039A00000F0020040B1404890F9000020F0020011
:1039B0003D490870FFF79CF95CE0002458E03B4863
:1039C0000068007A00284CD138480068407A002806
:1039D0003FD136480068807A05282CD2DFE800F015
:1039E00003090F1A200031490968C87AFFF7A1FFBF
:1039F00021E02E490968C87AFFF74AFF1BE000BFA3
:103A00001E202849087000BF28490968C87AFFF7B6
:103A1000ABFE10E0254800680B30FFF7D6F90AE04E
:103A200000BF1E201F49087000BF20490968C87ADE
:103A3000FFF799F900BF00BF1C480068006918B182
:103A40001A490968086980470120184909680872FD
:103A500007E016480068407A401EC1B2134800686B
:103A6000417212480068406810490860601CC4B286
:103A70000A2CA4DBA1E710B500214FF08040FEF72F
:103A80009BFC00214FF08040FEF72AFF2A2003F024
:103A900081FF10BD280000202900002030000020F8
:103AA00031000020910000202B0000202C0000207D
:103AB00010B5044622460A210448006803F033FF8B
:103AC00010B14FF0FF3010BD0020FCE72C000020AB
:103AD0000020F7490870704710B50020F5490880AC
:103AE0000021022001F0CCF9C0B210BD0120F04944
:103AF0000870704708B5002000906946022001F068
:103B000005FABDF80000012804DDBDF80000401EE4
:103B100080B20090BDF80010022001F0B1F908BD9C
:103B200008B5002000906946022001F0EFF9BDF8C9
:103B30000000B0F5B47F04DABDF80000401C80B28C
:103B40000090BDF80010022001F09AF908BD10B5F0
:103B5000D9480178042001F035FDD84890F90000DB
:103B6000002807DDD44800780A2803D1FF20D34974
:103B700008700AE0D14890F90000002805DACE4824
:103B8000007810B90120CD490870CB480078CB49A6
:103B90000978084440B2C8490870C9480068C94952
:103BA0000988884211D8C6484068C74909888842B0
:103BB00002D8FFF7B5FF32E0C1484068C249098822
:103BC00088422CD9FFF796FF29E0BD480068BF491D
:103BD0000988884211D2BA484068BD49098888429C
:103BE00002D8FFF79DFF1AE0B5484068B849098838
:103BF000884214D9FFF77EFF11E0FFF77BFFB04842
:103C00004068B4490988884209D8AA4801880088D0
:103C1000401CA84A1080642901DB012010BD00204F
:103C2000FCE72DE9F041002400BF14E0AA49601C24
:103C300031F8100021F8140001F10A00611C30F87D
:103C4000111020F814100A30611C30F8111020F8FF
:103C50001410601CC4B2042CE8DBA048008B9E4901
:103C600008819E48C18A9C4841829C48818B9A4821
:103C700081839B480078052806DA99480078401C23
:103C800097490870BDE8F08100208D4908604860C0
:103C9000886000241BE08A4800688F4931F81410BE
:103CA000084487490860084641688B480A3030F864
:103CB00014000844824948600846816886481430E8
:103CC00030F8140008447E498860601CC4B2052C9A
:103CD000E1DB7B4800680521B0FBF1F07849086022
:103CE000084640680521B0FBF1F075494860084678
:103CF00080680521B0FBF1F0714988600846806852
:103D00003021B0FBF1F0734908806D4880681821BC
:103D1000B0FBF1F06C49088069488068C0F38F00FF
:103D20006B4908806648806800EB80000C21B0FB7E
:103D3000F1F06C4908806248806800EBC000052102
:103D4000B0FBF1F0684908805D48806800EB001026
:103D50000921B0FBF1F05B4908805948806800EB0D
:103D6000800080000921B0FBF1F0604908805448D0
:103D7000806800EBC000C0F38F0054490880202108
:103D80005B48FDF746FB002860D05A48807805283C
:103D90005BD2DFE800F003181F3C560000F037FC50
:103DA0000120544948700020534908700120887050
:103DB00004204870AFF2CB2088600120C87008460C
:103DC000FFF776FE41E03A48007810B102204949F9
:103DD00048703AE0FFF7BBFE98B1FFF77DFE032085
:103DE000444948700020444908700120887004202C
:103DF0004870AFF2233088600420C8700846FFF78F
:103E000057FE00F096FC08B900F02CFC1DE0284895
:103E10000078A8B937480078642811DA01203549BC
:103E200048700020344908700120887004204870D0
:103E3000AFF2473088600120C8700846FFF738FEAF
:103E400003E000202B49487000BF9EE0294880789D
:103E5000052858D2DFE800F0035870849400254804
:103E6000007814284CDA12480078F8B92348007812
:103E7000401CC0B2214908701E2844DD0020087093
:103E80001D49087001208870042048700020886057
:103E9000184800780A2802DA0320C87002E00220DD
:103EA0001549C8701448FFF703FE2CE028E0000015
:103EB00056000020580000205A0000205B0000201F
:103EC000480100204C000020440000205000002049
:103ED0004600002042000020280100207E01002032
:103EE00055000020480000204A0000204E0000201D
:103EF000000C014052000020540100205C00002012
:103F00000020764908703FE000207549487000F0B5
:103F100010FC08B900F0A6FB0020724908700120CF
:103F2000887004204870AFF2574088600020C87045
:103F30000846FFF7BDFD27E0FFF7CEFD00206849EA
:103F40004870684908700120887004204870AFF2FA
:103F50007F4088600020C8700846FFF7A9FD13E085
:103F600000205F4948705F49087001208870042074
:103F7000487000208860C8700846FFF799FD03E08C
:103F800000205749487000BF00BF57480068574994
:103F90000988884203D964205149087046E0524894
:103FA00000685349098888423DD94D484078022825
:103FB0001CD04E4909884E4A1288881A03F07EFFA9
:103FC0000746494909684A4A1288881A03F07FFF60
:103FD0008046394603F034FF0646464903F0FEFEAC
:103FE000054603F079FF3E4908701FE04249098801
:103FF0003F4A1288881A03F061FF07463A49096868
:104000003B4A1288881A03F062FF8046394603F063
:1040100017FF0646374903F0E1FE054603F05CFF53
:104020002F49087002E000202D4908702C48407884
:104030002B49887000BF25E600B585B00121082016
:10404000FDF776FC2020ADF8100004208DF8130059
:1040500003208DF8120004A92848FDF747F9002233
:104060000121022000F0A0FE32208DF80C00032078
:104070008DF80D008DF80E0001208DF80F0003A8BB
:10408000FCF74BF901210820FDF75FFC1C48FDF708
:1040900063FD42F20F70ADF8040040F2CF20ADF89E
:1040A00000000020ADF80600ADF802006946144893
:1040B000FDF726FE01211248FEF744FC01221146BD
:1040C0000F48FEF794F9AFF2A541452003F056FCE6
:1040D00001210B48FEF770F905B000BD5C0000201F
:1040E0005200002054010020480100204E00002012
:1040F0004A0000200000C84250000020000C01408F
:10410000000C004010B568480088401C66490880D3
:104110006649087800EBD0714910A0EB4101D9B98C
:10412000614800886249098890FBF1F201FB1200A6
:1041300020B95E480078401E5C4908705A480488DF
:1041400004EBD4704010A4EB4000C2B24FF4006105
:104150005848FDF77CF919E054480078012807D148
:1041600000215548FEF728F900204F4908800DE04E
:104170004D4800884E49098890FBF1F201FB12007E
:1041800020B94A480078401E4849087010BD00B563
:1041900085B001212020FDF7CBFB4FF40060ADF886
:1041A000100010208DF8130003208DF8120004A9D0
:1041B0004048FDF79BF84FF400613E48FDF745F994
:1041C00036208DF80C0003208DF80D008DF80E00C0
:1041D00001208DF80F0003A8FCF79FF801211020A3
:1041E000FDF7B3FB3448FDF7B7FC1820ADF8040029
:1041F00040F2CF20ADF800000020ADF80600ADF889
:10420000020069462C48FDF77BFD01212A48FEF794
:1042100099FB012211462848FEF7E9F8AFF21B117D
:10422000492003F0ABFB05B000BD10B500212248CA
:10423000FEF7C2F800201D4908701B49088010BD18
:1042400010B5FFF7F2FF1C48FDF786FC0021102097
:10425000FDF77BFB10BD70B505460C46FFF7E5FF8B
:10426000012D06D0022D08D0032D0AD0042D10D127
:104270000BE002200D4908700CE004200B49087087
:1042800008E006200949087004E0FF20074908708B
:1042900000E070BD00BF0648048001210648FEF71B
:1042A0008BF800BFF5E700006200002060000020EE
:1042B0005E00002000140140001000400EB50121F6
:1042C0000820FDF742FBFE48FDF746FC4FF6FE7066
:1042D000ADF8040040F2CF20ADF800000020ADF8AA
:1042E0000600ADF802006946F548FDF709FD012119
:1042F000F348FEF761F80EBD3EB504460D460020BA
:104300008DF8000001208DF8010003208DF80200D7
:10431000002002908DF803408DF804506846FFF7A6
:10432000C7FB3EBD70B504460025E648005D002889
:1043300070D0E34824300088E34921F814000020BD
:10434000E0490855E14A32F81410E14A52F82400D5
:10435000FDF75FF828B90020DE490855DE49085509
:1043600070BDD94830F81400DC4931F81410884287
:1043700007DDD54830F81400D84931F81410401A38
:1043800009E0D64830F814004FF6FE71081ACE49FD
:1043900031F814100844D24921F81400CE48005DC9
:1043A00040B3084630F81400822806DD084630F88D
:1043B0001400B42801DA002511E0C94830F81400CF
:1043C0003C2806DDC64830F81400642801DA0125CF
:1043D00005E00020BF490855BF490855C0E7C1485E
:1043E000005D4006000EBF4908550846005D2843A1
:1043F000085514E0BA4830F81400B0F58C7F0ADD97
:10440000B74830F81400B0F5A07F04DA0120B249B3
:10441000085504E027E00020AE490855A0E7AD4864
:10442000005D401CAB4908550846005D09282CD1A9
:104430000020A9490855A7490855AA48005D472802
:1044400009DAA848005D392805DDA648015D204647
:10445000FFF752FF19E0A348005DA349087001204F
:10446000A249087011E09648243000889B4921F841
:104470001400964A32F81410954A52F82400FCF7BA
:10448000C8FF10B901208F49085500BF68E710B573
:104490000020FFF747FF10BD10B50120FFF742FFD6
:1044A00010BD10B50220FFF73DFF10BD10B5032071
:1044B000FFF738FF10BD10B50420FFF733FF10BD24
:1044C0001FB5FFF7FBFE01216120FDF731FA4FF424
:1044D0008050ADF80C0048208DF80F0003A98448E7
:1044E000FCF704FF1020ADF80C0003A98148FCF78D
:1044F000FDFE2020ADF80C0003A97D48FCF7F6FE78
:104500000220ADF80C0003A97948FCF7EFFE40202B
:10451000ADF80C0003A97648FCF7E8FE4FF4805094
:10452000FCF79DFB1020FCF79AFB2020FCF797FB83
:104530000220FCF794FB4020FCF791FB0C210320A8
:10454000FCF7EAFF04210846FCF7E6FF05210320FB
:10455000FCF7E2FF01210320FCF7DEFF0621032028
:10456000FCF7DAFF28208DF8080000208DF80900FC
:104570008DF80A0001208DF80B0002A8FBF7CDFE94
:104580000A208DF8080002A8FBF7C7FE17208DF857
:10459000080002A8FBF7C1FE07208DF8080002A85A
:1045A000FBF7BBFE17208DF8080002A8FBF7B5FE4D
:1045B00041F27200009000208DF8040010208DF868
:1045C000050001208DF806000098FCF733FB6846D3
:1045D000FCF7CEFAAFF24911382003F0CFF9AFF271
:1045E0004711142003F0CAF9AFF24911212003F05A
:1045F000C5F9AFF24711112003F0C0F9AFF249112C
:10460000222003F0BBF901203B4908701FBD1CB5F7
:104610000024F0243948C068A0433849C86000BF6E
:1046200008468068A04388600F2408464069A0437C
:10463000486100BF0846C068A043C860240208461D
:10464000C068A043C86041F27200009000208DF85D
:1046500004008DF806006846FCF78AFA0020264917
:1046600008701CBD1CB5002400BF08E000201549DF
:1046700008551849085518490855601CC4B2052C3E
:10468000F4DB4FF48050FCF7EAFA1020FCF7E7FA6D
:104690002020FCF7E4FA0220FCF7E1FA4020FCF7C6
:1046A000DEFA0C210320FCF737FF04210846FCF753
:1046B00033FF05210320FCF72FFF012103201FE01A
:1046C000000C0040850000206A0100209080000856
:1046D0006C000020800000208A0000206001002083
:1046E0007401002064000020690000206A0000209E
:1046F00000140140001801406B0000200000014040
:10470000FCF70AFF06210320FCF706FF41F27200C6
:10471000009000208DF8040010208DF80500012085
:104720008DF806006846FCF723FA01200849087056
:104730001CBD07480078704710B50446054800784E
:1047400028B105480078A04700200249087010BD34
:104750006B0000206A0000206900002000B591B0C5
:1047600001211C20FDF7E4F80420ADF840000020F2
:104770008DF8430010A9BC48FCF7B8FD1020ADF837
:10478000400010A9B848FCF7B1FD0220ADF8400088
:1047900010A9B548FCF7AAFD0120ADF8400010A90A
:1047A000B248FCF7A3FD0820ADF8400010A9AE48C0
:1047B000FCF79CFD0220ADF8400010A9AB48FCF7C7
:1047C00095FD2020ADF8400010A9A848FCF78EFD0B
:1047D0002020ADF8400010A9A348FCF787FD022077
:1047E000ADF8400010A9A248FCF780FD8020ADF88C
:1047F000400010A99C48FCF779FD4020ADF840002E
:1048000010A99948FCF772FD0420ADF8400010A9EA
:104810009648FCF76BFD0820ADF8400010A99348BE
:10482000FCF764FD1020ADF8400010A98F48FCF79C
:104830005DFD01214020FDF77BF84FF40050ADF8FD
:10484000400010208DF8430003208DF8420010A98D
:104850008848FCF74BFD4FF400518648FCF7F3FD08
:1048600001210846FDF757F88348FCF749F88348CB
:10487000009083480190002002900F2003900020B8
:104880000490802005904000069080000790202032
:1048900008904FF44050099000200A9069467648ED
:1048A000FCF7D0F801214802FDF742F84FF4004030
:1048B000FCF7A2FF00200B9001208DF830008DF84E
:1048C00031004FF460200D9000200E900F208DF8E5
:1048D0003C000BA969484C38FBF7AFFD01231A4691
:1048E000022166484C38FBF740FE0123022219469C
:1048F00062484C38FBF739FE0123032204215F484C
:104900004C38FBF732FE012304220A215B484C3865
:10491000FBF72BFE01230522032158484C38FBF7F7
:1049200024FE012306220B2154484C38FBF71DFEC0
:10493000012307220F2151484C38FBF716FE0123B3
:10494000082205214D484C38FBF70FFE01230922B0
:1049500011464A484C38FBF708FE01230A2207217A
:1049600046484C38FBF701FE01230B220621434841
:104970004C38FBF7FAFD01230C2211463F484C3816
:10498000FBF7F3FD01230D2211463C484C38FBF7A1
:10499000ECFD01230E22114638484C38FBF7E5FDAB
:1049A00001230F22112135484C38FBF7DEFD012091
:1049B000FBF700FF11B000BD10B500212F484C38A7
:1049C000FBF7A7FD00212C48FCF767F800212B48D6
:1049D0004C38FBF769FD002128484C38FBF759FD9E
:1049E00010BD10B5FFF7E8FF2348FBF789FF002152
:1049F0000120FCF790FF21484C38FBF7F7FC002121
:104A00004FF40070FCF794FF00214020FCF790FF6A
:104A100010BD10B501211848FCF73FF801211748D7
:104A20004C38FBF741FD012114484C38FBF731FDB0
:104A300012484C38FBF74FFD00BF10484C38FBF7CD
:104A40004FFD0028F9D10D484C38FBF753FD00BF4E
:104A50000A484C38FBF753FD0028F9D101210748DB
:104A60004C38FBF756FD10BD000801400010014016
:104A7000000C014000180140080002404C24014095
:104A80007E01002038B50024002501216020FCF7BC
:104A90004FFF4FF48060ADF8000010208DF8030048
:104AA00003208DF8020069468148FCF71FFC0122B3
:104AB00091027F48FCF7CBFC00BF50E07D4800EB43
:104AC0000410008908B37B4800EB04104068E0B193
:104AD000784800EB04100089ADF8000010208DF834
:104AE000030003208DF80200724901EB04114868AD
:104AF0006946FCF7FBFB6F4A02EB041211896D4A11
:104B000002EB04125068FCF79EFC6A4800EB0410AC
:104B10000078072821D0674800EB0410007828B1FE
:104B2000644800EB04100078052809D1614901EBC5
:104B3000041108780022114600F036F9C5B208E0E9
:104B40005C4901EB041108780022012100F02CF9E6
:104B5000C5B215B14FF0FF3038BD601CC4B2062C91
:104B6000ACD30020F8E770B504460D46514800EB81
:104B700004108089A84203DA4E4800EB04108589AE
:104B80004C4901EB04110878294600F079F970BD11
:104B900038B5044600200090464901EB041108781E
:104BA000694600F0B3F9BDF8000038BD70B50546A0
:104BB00000242846FFF7ECFF0446012C01DDA01E6F
:104BC00084B221462846FFF7CEFF70BD70B505467A
:104BD00000242846FFF7DCFF0446364800EB0510AA
:104BE0008089401EA04201DDA01C84B221462846D7
:104BF000FFF7B9FF70BD70B504460D462D4800EBB8
:104C000004100089C8B12B4800EB04104068A0B123
:104C1000284800EB0410807A20B10DB9012000E093
:104C200000200546234A02EB04121189214A02EBB7
:104C3000041250682A46FCF70AFC002070BD70B5CB
:104C4000044600251B4A02EB04121189194A02EBA3
:104C500004125068FCF7EAFB0546164800EB041006
:104C6000807A20B10DB9012000E0002005462846D9
:104C700070BD38B50446002000900E4901EB0411C8
:104C80000878694600F042F9BDF8000070B1094AA1
:104C900002EB04121189074A02EB04125068FCF778
:104CA000C5FB08B1022038BD0320FCE70120FAE76C
:104CB000001801409C8000081FB5002400BF4CE094
:104CC000DC4901EB04114868FCF746FFD94800EBCA
:104CD00004100068B0F5807F07D9D64901EB0411B4
:104CE00008680121FCF724FE06E0D24901EB04111B
:104CF00008680121FCF729FECE4800EB04108089EA
:104D0000401E80B2ADF80800CA4800EB041080894C
:104D1000C9490968B1FBF0F0C64901EB0411896883
:104D2000B0FBF1F0401E80B2ADF804000020ADF8F9
:104D30000A00ADF806008DF80C00BE4901EB041125
:104D4000486801A9FCF7DCFFBA4901EB0411486887
:104D50000121FDF731FC601CC4B2032CB0D3002448
:104D60001DE0B64901EB0411496841F00100012141
:104D7000FCF7DEFDB14800EB04108089ADF80000BF
:104D800018208DF8030003208DF80200AB4901EBD9
:104D9000041188686946FCF7A9FA601CC4B2072CA4
:104DA000DFD3002004B010BD7FB504460E46154683
:104DB000072C03DB4FF0FF3004B070BD9F4800EBC1
:104DC000041040789B4901EB00108089A84202DC66
:104DD0004FF0FF30F0E76846FDF7C7FA6020ADF806
:104DE00000000120ADF802000EB1002000E002201A
:104DF000ADF808000020ADF80C00ADF806508F4863
:104E000000EB04100078012806D0022810D00328F7
:104E10001AD0042830D123E0884901EB04114978E5
:104E2000844A02EB011148686946FCF7A6FF24E0BA
:104E3000824901EB041149787E4A02EB011148686E
:104E40006946FCF7DCFF18E07C4901EB0411497866
:104E5000784A02EB011148686946FDF71DF80CE03D
:104E6000764901EB04114978724A02EB0111486856
:104E70006946FDF75CF800E000BF00BF00209BE73B
:104E800070B504460D466D4800EB0410007801280B
:104E900006D0022810D003281AD0042830D123E0ED
:104EA000664901EB04114978624A02EB0111486836
:104EB0002946FDF719FD26E0604901EB0411497808
:104EC0005C4A02EB011148682946FDF70FFD1AE024
:104ED0005A4901EB04114978564A02EB011148681E
:104EE0002946FDF705FD0EE0544901EB0411497810
:104EF000504A02EB011148682946FDF7FBFC02E02D
:104F00004FF0FF3070BD00BF0020FBE770B50446D6
:104F10000D460026072C01DB701E70BD474800EBD4
:104F200004100078012806D0022810D003281AD0D7
:104F3000042830D123E0414901EB041149783D4A6E
:104F400002EB01114868FDF7E1FC064623E03B490E
:104F500001EB04114978374A02EB01114868FDF76B
:104F6000D8FC064617E0354901EB04114978314A6F
:104F700002EB01114868FDF7CFFC06460BE02F4914
:104F800001EB041149782B4A02EB01114868FDF747
:104F9000C6FC064600BF00BF2E800020BDE710B54E
:104FA000002400BF1DE0234901EB041148680121E2
:104FB000FDF702FA1F4800EB0410406820498842C0
:104FC00006D01C4800EB041040681E49884206D1F8
:104FD000184901EB041148680121FDF7F9F9601C3B
:104FE000C4B2032CDFD310BD10B5002400BF1DE0F8
:104FF000104901EB041148680021FDF7DDF90D4867
:1050000000EB041040680E49884206D0094800EBC6
:10501000041040680B49884206D1064901EB04118F
:1050200048680021FDF7D4F9601CC4B2032CDFD31B
:1050300010BD00006C81000800000020FC8000080A
:10504000002C01400034014010B5FBF7F7FB0120B4
:10505000FCF7DBFB00BF4120FCF73FFB0028FAD048
:105060004FF48070FCF7EDFB0120FCF7F0FBFCF740
:1050700033FDFCF728FD47F6FF70FCF7FEFCFCF75C
:105080002BFDFCF720FD10BD70B504460D461646FD
:10509000FCF719FD4FF461616143C5EB051201EBAB
:1050A00082018819FCF7DCFCFCF70DFD70BD70B5C2
:1050B000044600250120FCF772FAFCF704FD7CB1E0
:1050C000FCF7BAFC0519A9B20C20FBF7E0FB4FF680
:1050D000FF7000EA15411020FBF7D9FBFCF7F3FC49
:1050E0000CB1012000E0002001460820FBF7CFFBB7
:1050F000FCF7E9FC0020FCF752FA70BD10B508205F
:10510000FBF7D1FB08B1012010BD0020FCE770B512
:105110000026002400250120FCF741FAFCF7D3FC0F
:105120000820FBF7C0FB0646FEB11020FBF7BBFBD7
:10513000044624040C20FBF7B6FB0443FCF77CFC7C
:10514000A04212D3FCF778FC60494418A1B20C20AD
:10515000FBF79DFB4FF6FF7000EA14411020FBF7B0
:1051600096FBFCF7B0FC45F002051820FBF79BFB13
:10517000044624041420FBF796FB0443FCF75CFC74
:10518000A04216D3FCF758FCC41C2046FCF783FC55
:10519000FCF799FCA1B21420FBF779FB4FF6FF70E6
:1051A00000EA14411820FBF772FBFCF78CFC45F079
:1051B00001050020FCF7F3F9284670BD1E20444984
:1051C0000870704700B5012042490870FFF7F6FFEC
:1051D00000BD40480078704710B500F0C9F83C4861
:1051E0000078002805DD3A480078401E38490870EC
:1051F00002E000203749087010BD38B500240121B5
:105200004FF0C050FCF7A1FB0120FCF7C8F9FCF7F8
:105210005AFC0420FBF747FB4AF2A55188421ED0F6
:10522000FFF712FF4AF2A5510420FBF730FB0021E3
:105230000820FBF72CFBFCF746FCFCF7FDFBC51C2C
:105240002846FCF728FCFCF73EFC03211420FBF762
:105250001EFB00211820FBF71AFBFCF734FCFFF7BC
:1052600056FF44B203208DF800008DF801008DF840
:10527000020001208DF803006846FBF74EF8292054
:105280008DF8000000208DF801008DF8020001204B
:105290008DF803006846FBF740F80120FCF77FF922
:1052A00001210320FCF7A8FBFCF70DFCFCF77EFBBB
:1052B0000020FCF774F9AFF2DF010C2002F05EFB76
:1052C00005490D2002F05AFB204638BD7F510100F0
:1052D0008F000020900000201154000808B500EB5A
:1052E000C0014FF0E0225161002191610121116163
:1052F00000BF4FF0E02109690091009901F0010120
:1053000021B1009901F480310029F2D000214FF041
:10531000E0221161916108BD08B542F22831414394
:105320004FF0E0225161002191610121116100BF24
:105330004FF0E02109690091009901F0010121B1CC
:10534000009901F480310029F2D000214FF0E022D1
:105350001161916108BD10B5044603E04FF47A7005
:10536000FFF7DAFF201EA4F10101CCB2F6D110BD87
:105370000EB58E480078401E8C49087008460078AB
:1053800068B900208DF800008DF801008DF802004A
:10539000029004208DF803006846FEF789FB0EBDDD
:1053A00070B532250024002616E000240BE080486A
:1053B00030F814007F4931F81410084408B1012670
:1053C00003E0601CC4B2052CF1DB00BF06B108E0AD
:1053D0004FF4FA70FFF782FF281EA5F101010DB20C
:1053E000E3D100BF002D01DA002070BD962508E052
:1053F00071480078C82801D10120F6E70120FFF7A5
:105400008BFF281EA5F101010DB2F1D100BFECE721
:105410003EB50024FFF77BFE044604F0020068B1AD
:1054200000208DF800008DF801008DF80200029038
:1054300001208DF803006846FEF73AFB3EBD10B52B
:10544000FCF708F94FF48030FCF724F900BF312055
:10545000FCF743F90028FAD01020FBF71DFC0220CE
:10546000FBF706FC0020FCF79AF90020FCF7A9F9ED
:105470004FF48060FCF79CF94FF4E0114FF480305A
:10548000FCF770F90120FCF779F900BF3920FCF72F
:1054900024F90028FAD00220FCF773F900BFFCF7CA
:1054A00079F90828FBD110BD08B501210420FCF7CB
:1054B0003FFA4FF40070ADF8000010208DF80300A3
:1054C00002208DF8020069463C48FBF70FFF0022DE
:1054D0004FF400713948FBF7BAFF01212020FCF797
:1054E00027FA02208DF8020010208DF80300042016
:1054F000ADF8000069463248FBF7F8FE0820ADF829
:10550000000069462E48FBF7F1FE1020ADF80000C0
:1055100069462B48FBF7EAFE04212948FBF795FF73
:1055200008212748FBF791FF10212548FBF78DFF45
:1055300001210807FCF709FA0120FCF73FF80122D6
:1055400051021E48FBF783FFFA20FFF7C7FEFFF763
:1055500076FFFAF784FE6FF00400FAF728FF08BD23
:10556000704710B50446012C06D0022C05D0032C40
:1055700004D0042C17D102E015E000BF00BF0021C9
:10558000022000F01FF8FCF765F800224FF40071CC
:105590000A48FBF75CFF4FF47A70FFF79FFEFCF7B9
:1055A0002CF800BFFEE700BF002010BD91000020D6
:1055B000600100206A01002069000020000801400D
:1055C000001401400A2900DD70477E4A10707E4AAF
:1055D000117000BFF8E710B500247C4800780A215C
:1055E00090FBF1F201FB1200E0B90020774908704E
:1055F000754800787649087073480078487072489A
:105600000078887070480078C0F10A00714908700D
:105610006D480078C0F10A0048706B480078C0F10E
:105620000A00887000244FE066480078204100F0AE
:105630000100A0B36648005D002831DD63490878A9
:1056400000EBD0714910A0EB410111B96149095D2E
:1056500091B904EB4402604B03EB8202118904EB25
:10566000440203EB82025068FBF7EDFE5848005DF0
:10567000401E5749085525E004EB4402564B03EB06
:105680008202118904EB440203EB82025068FBF7AB
:10569000DCFE5048005D401E4E49085512E0FFE711
:1056A00004EB44024C4B03EB8202118904EB4402ED
:1056B00003EB82025068FBF7C8FE4648005D401EBF
:1056C00044490855601CC4B2032CADD33F48007850
:1056D000401C3E49087010BD3EB5044600208DF8C0
:1056E000000002208DF8020000208DF801000290D9
:1056F0008DF803406846FEF7DBF93EBD0EB500208D
:105700008DF8000002208DF8020000208DF80100C5
:1057100002908A208DF803006846FEF7C9F900BFA1
:105720001E202E49087000BF0EBD2C4800780328AB
:1057300002DD032029490870704700B587B00121B8
:105740002020FCF7F5F803208DF81A0010208DF8C2
:105750001B000420ADF8180006A92148FBF7C6FD80
:105760000820ADF8180006A91D48FBF7BFFD102062
:10577000ADF8180006A91A48FBF7B8FD0821022069
:10578000FFF720FF00F06BF82020019014480290F2
:105790008020ADF80C00AFF26D000490AFF2A301D1
:1057A000059101A800F0A6F800F098F807B000BD38
:1057B00010B500210220FFF705FF00F095F800F07A
:1057C00084F810BD92000020930000209400002077
:1057D00095000020980000209C8100089100002086
:1057E0000014014010B573480468734801880088AC
:1057F000401C714A1080322091FBF0F200FB121025
:1058000010B1FFF7E8FE10BD22E0218AE068FBF747
:1058100000FE98B1207F20B1012803D002280BD1CF
:1058200003E00AE00220207707E003202077606988
:1058300008B16069804700E000BF08E0207F0328CE
:1058400003D1A06908B1A06980470120207764686E
:10585000002CDAD15948FEF76FFF00BFD3E71FB520
:105860001D208DF8000001208DF8010000208DF82A
:10587000020001208DF803006846FAF74EFD012171
:105880000220FCF762F84E48FCF766F9C720ADF835
:10589000080040F2CF20ADF804000020ADF80A0067
:1058A000ADF8060001A94648FCF72AFA0121444850
:1058B000FDF748F8012211464148FCF798FDAFF288
:1058C000DB012B2002F05AF81FBD10B53C48FCF755
:1058D00043F900210220FCF738F810BD10B5012172
:1058E0003748FCF769FD10BD10B500213448FCF7BE
:1058F00063FD10BDF8B504462E48066800250CB9B6
:10590000681EF8BD01212068FCF712F82089ADF867
:10591000000028208DF8030003208DF8020069465E
:105920006068FBF7E3FC202002F06CFB054615B92C
:105930004FF0FF30E5E72021284602F044FA142218
:10594000214605F1080002F025FA1A48006810B94E
:105950001848056006E000E0766870680028FBD112
:1059600075602E600020CCE770B5054611480468CC
:1059700015B94FF0FF3070BD18E0E06869688842E3
:1059800013D1208A298988420FD1206810B1D4E927
:1059900000104860606810B1D4E90001086020463A
:1059A00002F008FB00240020E5E76468002CE4D145
:1059B000601EE0E7A00000209C000020D9560008EF
:1059C00000040040F9488088401CF84988807047EE
:1059D00010B5F6480088401CF4490880F448006877
:1059E000401CF3490860F1480088B0F5AF6F04D15E
:1059F0000020F0490870F0490870EC480088EF4931
:105A00000988884205D1EE48006810B1EC4800686A
:105A1000804710BD10B5E5484088401CE3494880E8
:105A2000E8480068401CE7490860E0484088B0F555
:105A3000AF6F04D10020DF490870DF490870DB48F0
:105A40004088E1490988884205D1E048006810B1E2
:105A5000DE480068804710BD10B50024DC48808B0C
:105A6000DC490880DC48006842F222210840884274
:105A700001D1012000E000200443D748006842F231
:105A800020010840884201D1012000E000200443A9
:105A90004FF40041D148FBF7BCFC30B9CE48007848
:105AA00000F0200008B1012000E0002004434FF482
:105AB0008071CB48FBF7ADFC30B9C748008800F4D3
:105AC000005008B1012000E0002004434FF40071B1
:105AD000C348FBF79EFC08B1012000E0002044EA27
